:10200000004000207D500000675000006750000035
:1020100000000000000000000000000000000000C0
:1020200000000000000000000000000067500000F9
:10203000000000000000000067500000D1500000C8
:1020400067500000675000006750000067500000B4
:1020500067500000675000006750000069500000A2
:1020600067500000494800006750000067500000BA
:102070006750000067500000675000006750000084
:102080006750000067500000675000006750000074
:10209000000000006750000067500000675000001B
:1020A0006750000067500000675000006750000054
:1020B0000000000010B5064C2378002B07D1054B1B
:1020C000002B02D0044800E000BF0123237010BDA4
:1020D0008401002000000000A0BD0000044B10B5EA
:1020E000002B03D00349044800E000BF10BDC046E8
:1020F0000000000088010020A0BD0000406970477A
:10210000807C7047817470470020704701207047C1
:10211000C82040007047000010B5012104000020D5
:1021200003F084FA1023E361014B236210BDC04623
:102130001000006010B5040002F088F82368002148
:1021400020009B69984710BDF8B5036804005B6ADE
:102150000E0041699847E37C0500002B06D02368F8
:1021600020005F68626933006168B847236829000E
:1021700020009B6A9847F8BD10B50400024B03602D
:1021800002F03EF8200010BD74B4000010B5040049
:10219000FFF7F2FF200003F02DF8200010BD000033
:1021A00010B50400024B0360FFF7E6FF200010BDEE
:1021B000B0B4000010B50400FFF7F2FF200003F0F8
:1021C00019F8200010BD000010B50400024B036098
:1021D000FFF7E6FF200010BDECB4000010B50400CE
:1021E000FFF7F2FF200003F005F8200010BD10B546
:1021F000017801F085FF10BD10B5002003F062F9F1
:102200000C2003F039F9082003F0A0F90A2002F0AD
:10221000A3FF10BDF7B5274E01253368264C1F00DC
:102220002F402B420BD1200001F0ECFF234B20006C
:10223000234A2449A7842360356004F0EDFB224D36
:102240002D2200232900200001F008FF1F4B204E03
:102250001860204B02211B7833701F4B187803F055
:10226000E5F9FFF7C9FF8021002300221B4C1C4821
:10227000C900E250C25004338B42FAD10027194BF7
:1022800001AC238022002D212800A77002F018FA4B
:102290003000FFF7ACFFFA20400002F05DFF28009D
:1022A00022002D212780A77002F00AFA3000FFF7E4
:1022B0009EFFF7BDA4010020A8010020ECB400009F
:1022C00000000020C92100003C0200202402002060
:1022D000140D00204C00002008000020E006002023
:1022E000E00200200080FFFFF0B5002487B002F07C
:1022F00003FF3B4D2B68C01A5228F8D902F0FCFEB0
:102300002860082003F022F980B206F0CFFF354D97
:10231000061C3549286806F0B1FC3449071C301CFE
:1023200006F0ACFC011C381C06F042F92860011CC8
:10233000301C06F0BDFD002380222D4DD200671910
:1023400038602C4F05933B5104349442CFD1002484
:102350008022294E0123290030005200029401946A
:10236000009401F045F980233A00290030005B0019
:10237000009401F01DFD80233A00290030005B002D
:1023800001F017F92F00002C07D1059B2B600134B9
:102390000437802CF7D107B0F0BD184B185D06F05C
:1023A00085FF174906F06AFC011C386806F080FDBD
:1023B0000021061C06F0A8F8002800D10026114ACA
:1023C0006300D05A3E600028E1D006F06FFF011C88
:1023D000301C06F089FA0C4906F050FC3860D6E74C
:1023E000F001002004000020A4707D3F0AD7233CA8
:1023F000E0060020E0020020D001002050B60000DE
:102400009A99194050B5000000002A43F7B502F030
:102410006DFE012406000025012D23D802F066FE82
:102420000700831B772BF7D90F48104E01AA002C09
:102430000CD000232D211380937002F041F930005D
:10244000FFF7D5FE01233E005C40E5E7FF232D2189
:102450001380947002F034F901353000FFF7C7FEA5
:10246000EDB2EFE7F7BDC0463C020020140D00209E
:10247000F7B502F03BFE012406000025012D23D80C
:1024800002F034FE0700831B772BF7D90F48104E5C
:1024900001AA002C0CD000232D211380937002F090
:1024A0000FF93000FFF7A3FE01233E005C40E5E793
:1024B000084B2D211380947002F002F90135300091
:1024C000FFF795FEEDB2EFE7F7BDC0463C020020F6
:1024D000140D00200080FFFF074B10B51A78002A6A
:1024E00004D101321A70FFF791FF10BD00221A705B
:1024F000FFF7BEFFF9E7C046C302002010B5044C49
:1025000005212078013005F095FF217010BDC046EF
:102510004E000020F8B5234B187803F0E3F8C5B25D
:1025200002F0E4FD204E04003278204BAA4202D093
:1025300018603570F8BD1B68C31A322BF9D91C4FCF
:102540003B78AB4226D01B4B3D70002D10D10122B1
:102550001A70194B1860184B1868FA23241A9B003C
:102560009C42E6D30022134B1A70FFF7B5FFE0E759
:102570001A78002ADDD000221A70FA220E4B92003F
:102580001B68C31A9342D4D20C4B1B78002BD0D1BA
:10259000FFF7B4FF3B78002BCBD1064B1B78002B09
:1025A000C7D0D8E7080000204D00002034020020EA
:1025B0000900002000020020FC010020C3020020CE
:1025C000F0B585B002F092FDFA213E4A8900136809
:1025D000C31A8B4251D33C4F3C4B3E681C68106081
:1025E000002E52DD200006F061FE051C300006F0D2
:1025F0005DFE011C281C06F077F9354906F03EFB0C
:102600003449051C05F080FF002838D0324E33498C
:10261000306806F033FB3249051C05F075FF0028D1
:1026200000D02F4D35600723E01703401B19DB1046
:1026300002930F2318400019031103930023294E1E
:10264000294C01933368029A93422BDD2749206875
:1026500006F014FB2249051C05F056FF002800D0A7
:102660001F4D25600023019A08C6013201920434EF
:10267000082AE7D1154A3B60136005B0F0BD184940
:10268000281C05F02DFF0028CDD0134E18493068C6
:1026900006F0F4FA1749051C05F022FF0028C1D006
:1026A000144DBFE7039A9342DCDA1349206806F021
:1026B000E5FA1049051C05F013FF0028D1D00D4D97
:1026C000CFE7C04638020020DC020020F4010020E1
:1026D0000000C8420000A04168000020CDCC8C3F23
:1026E00000002041040200202C0000206666863F86
:1026F0006666663FCDCCCC3D3333733FF7B52D21B5
:10270000002002F0A5FC104AC3B214780322C0B224
:1027100050430E49624340180D490E4D0978AC18DC
:102720005918C9B2019101998B420BD02C2B09D8B1
:102730006778A678515D0133017047708670DBB20F
:102740000330F0E7F7BDC046010200203C02002044
:10275000640000200A000020F7B5104B104A1978D9
:1027600003254800835C12185278694394460D4C47
:1027700066189C4510D32800727858430092B278AE
:102780000F5D0192084A0133875412180098DBB29A
:10279000507001989070ECE7F7BDC0460102002030
:1027A000540000200A0000203C020020F7B5124B24
:1027B000124A197803254800835C12185278104C8D
:1027C0009446247869431B190E4CDBB266189C456D
:1027D00010D32800727858430092B2780F5D0192AE
:1027E000094A0133875412180098DBB250700198DF
:1027F0009070ECE7F7BDC0460102002054000020B5
:102800006C0000200A0000203C0200200023F0B5EC
:1028100089B006AA6F48938093712D2107AA01F011
:102820004FFF6D48FFF7E3FCFFF774FEFFF75CFD19
:102830006A4B00271E006A4D019302972B786C7833
:1028400005937F2C00DD7F24059BA34247DA039389
:1028500000230493039BA3420ADC624A9B00D158E5
:10286000049805F0A5FE039B049001330393F1E760
:10287000059BE01A013006F019FD011C049806F0D2
:1028800033F8041CA87806F011FD011C201C06F08A
:102890002BF8554A55491368041C01331360544BF7
:1028A000186806F0EBF9534BBA00D15806F0E6F978
:1028B000011C201C05F032FE002810D04E4B4F4A60
:1028C00019784F4B1F70136801331360336801335D
:1028D0003360002927D1FFF711FF0123029301374D
:1028E00003350436082FA9D1434B1B78012B5AD14D
:1028F0000025444E3378747804937F2C00DD7F24C8
:10290000049BA34248DA00270393039BA3420DDCF8
:10291000344A9B00D158381C05F04AFE039B071C23
:1029200001330393F1E7FFF717FFD6E7049BE01AA3
:10293000013006F0BBFC011C381C05F0D5FF041C5F
:10294000B07806F0B3FC011C201C05F0CDFF264A30
:102950002D491368041C01331360254B186806F0D9
:102960008DF9244BAA00D15806F088F9011C201CCF
:1029700005F0D4FD00280FD0204A214B1D701368AC
:1029800001331360019B019A1B68029301331360AA
:10299000FFF70CFF01230293019B0135043303363B
:1029A0000193082DA6D10C48FFF721FC029B094892
:1029B000002B0DD0154B1A782D2101F0D2FCFFF71A
:1029C000FFFD0D4B1B78012B00D82DE709B0F0BDA2
:1029D0000F4BF0E73C020020140D00200402002001
:1029E00020B50000E0060020DC0200200000484284
:1029F000680000202C0000204E000020F401002080
:102A00000102002038B500000000824228000020AA
:102A10002900002070B505000C001000002D07D023
:102A2000290005F007FD002902D1002D08DD013441
:102A30000020002C03DB2000FF2C00DDFF2070BDF8
:102A4000013CF5E7F0B587B002F056FB384B394A48
:102A5000197803234B43D1189A5C374B4C781B6889
:102A60008F780090D61A9A4205D0FF20310080005E
:102A700005F0FAFB0600314B1B68E51A9C4205D0B5
:102A8000FF202900800005F0EFFB05002C4B1B68A0
:102A9000FA1A01929F4205D0FF201100800005F034
:102AA000E3FB0190274A009B11685B1A26490968DD
:102AB0008B4238D3009B254F254C13603B6821681F
:102AC0001A0030000093FFF7A5FF224E009A3168EC
:102AD000029020602800FFF79DFF1F4D009A296893
:102AE000039030600198FFF795FF029B05AA1370D1
:102AF000039B907053702D212860184801F0E0FD71
:102B00001748FFF774FBFF223B68920001333B60DC
:102B1000934208DB2268084B1A603268074B1A6040
:102B20002A68074B1A60FFF7F5FC07B0F0BDC046F6
:102B3000010200200A000020CC020020C802002070
:102B4000C4020020D0020020240000202C0200201B
:102B5000D802002030020020F80100203C020020B2
:102B6000140D002073B500266B462D219E809E71AA
:102B7000114801AA01F0A4FD1048FFF738FB104CE2
:102B8000104D26702E60FF26B6000F4B1B78022BCF
:102B900011D1FFF757FF2B68B34207DB00222378E0
:102BA0002A600133DBB2072B03D82370FFF7B2FC96
:102BB000EBE72270FAE773BD3C020020140D002001
:102BC000010200202C0200204E000020F7B5002753
:102BD0006B461C4D9F809F712D21280001AA01F09A
:102BE0006FFD194E3000FFF702FB184C27700C37B1
:102BF000174B1B78032B24D102F078FA154A16499B
:102C000013680968C31A8B4218D310602078381AE9
:102C100006F04CFB114906F031F805F0B1FC052334
:102C2000C2B22D21280001F05EFD3000FFF7DFFA6F
:102C300020780C21013005F0FDFB2170FFF76AFCC4
:102C4000D6E7F7BD3C020020140D00202B02002027
:102C50004E000020D4020020500000200000AA41B5
:102C6000F0B5354F85B03B7803900291002B06D02C
:102C700000230721314A3B701370314A117002F072
:102C800035FA304A304913680968C31A8B4251D368
:102C90002A4B1B780093072B4CD80325284B106038
:102CA0001B780193019A294B5200D45C009A520080
:102CB000D65C274B7543ED18009B244A5B00D31864
:102CC0005B78B34215D203256543214BED18019B78
:102CD0005E00961901363378A34215D32C2C13D8F5
:102CE00028000322013402A908F090FAE4B2033567
:102CF000F1E72C2EE7D828000322013603A908F0BB
:102D000085FAF6B20335D7E71248FFF770FA80224A
:102D10002D210F4801F025FB084B084A1B78084974
:102D20000133DBB213700A78013A0A70072B01D91C
:102D300001233B7005B0F0BD6D000020290200208A
:102D40002A020020D402002050000020540000205D
:102D50003C020020140D0020F7B5002601AC220033
:102D60002D2126482680A67001F0AAFC2448FFF7F2
:102D70003EFA01238227234D2E70234E3370234BBE
:102D80001B78042B39D1287803280FD805F0CEF909
:102D90000219252DFF236946238000231C4AA370B6
:102DA0000A808B7000992068FFF75AFF3378002B58
:102DB00004D003222B78013313402B70FFF7AAFBBA
:102DC000DDE76A46134B13800023937001225242C1
:102DD0002280A37021680098E6E76A460E4B1380B4
:102DE000002393702380FF33F3E76B464B229F70E1
:102DF0001A80942323803F33EBE7F7BD3C02002089
:102E0000140D0020280200206D0000204E0000203C
:102E1000FF450000FF8CFFFF0080FFFF10B5FFF7AC
:102E200079FB0A4B1878042806D805F07FF90303CC
:102E300006090C00FFF7EAFC10BDFFF793FEFBE765
:102E4000FFF7C4FEF8E7FFF787FFF5E74E00002025
:102E5000F0B585B002910A9903938B680190013314
:102E60008B60CB680133CB600B6901330B610026AB
:102E70009446039B350034003000019A029F664659
:102E800074784D782D06240601D16D40C046641932
:102E900000D3E44300D32406CE68240E74434D7857
:102EA0000E79751B4D702004624600969446009E74
:102EB000019A029F9760C046C0460326013EFDD19D
:102EC000400000D25760C046C046C0460826013EBA
:102ED000FDD15760C046C0460526013EFDD1976032
:102EE000C046C0460326013EFDD1400000D25760D7
:102EF000C04666463478C046C0460726013EFDD12E
:102F00005760C046C0460526013EFDD19760C046C9
:102F1000C0460326013EFDD1400000D25760C046A6
:102F20000D782D06240601D16D40C046C046062608
:102F3000013EFDD15760C046C0460526013EFDD189
:102F40009760C046C0460326013EFDD1400000D236
:102F50005760C046641900D3E44300D32406072613
:102F6000013EFDD15760C046C0460526013EFDD159
:102F70009760C046C0460326013EFDD1400000D206
:102F80005760C0468E68240E7443C0460726013E33
:102F9000FDD15760C046C0460526013EFDD1976071
:102FA000C046C0460326013EFDD1400000D2576016
:102FB000C0460D78CE78751B0D70C0460626013EC2
:102FC000FDD15760C046C0460526013EFDD1976041
:102FD000C046C0460326013EFDD1400000D25760E6
:102FE000C046C046C0460826013EFDD15760C046D7
:102FF000C0460526013EFDD19760C046C046032667
:10300000013EFDD1400000D25760C0462004C046BA
:103010000826013EFDD15760C046C0460526013E48
:10302000FDD19760C046C0460326013EFDD1400059
:1030300000D25760C046C046C0460826013EFDD1BA
:103040005760C046C0460526013EFDD19760C04688
:10305000C0460326013EFDD1400000D25760C04665
:103060006646B478C046C0460726013EFDD157608B
:10307000C046C0460526013EFDD19760C046C04609
:103080000326013EFDD1400000D25760C0468D7836
:103090002D06240601D16D40C046C0460626013EDD
:1030A000FDD15760C046C0460526013EFDD1976060
:1030B000C046C0460326013EFDD1400000D2576005
:1030C000C046641900D3E44300D324060726013E1A
:1030D000FDD15760C046C0460526013EFDD1976030
:1030E000C046C0460326013EFDD1400000D25760D5
:1030F000C0460E69240E7443C0460726013EFDD12A
:103100005760C046C0460526013EFDD19760C046C7
:10311000C0460326013EFDD1400000D25760C046A4
:103120008D784E79751B8D70C0460626013EFDD107
:103130005760C046C0460526013EFDD19760C04697
:10314000C0460326013EFDD1400000D25760C04674
:103150008E79B444C046C0460726013EFDD1576073
:10316000C046C0460526013EFDD19760C046C04618
:103170000326013EFDD1400000D25760C046200426
:10318000C0460826013EFDD15760C046C046052610
:10319000013EFDD19760C046C0460326013EFDD1E9
:1031A000400000D25760C046C046C0460826013ED7
:1031B000FDD15760C046C0460526013EFDD197604F
:1031C000C046C0460326013EFDD1400000D25760F4
:1031D000C04666467478C046C0460726013EFDD10B
:1031E0005760C046C0460526013EFDD19760C046E7
:1031F000C0460326013EFDD1400000D25760C046C4
:103200004D782D06240601D16D40C046C0460626E5
:10321000013EFDD15760C046C0460526013EFDD1A6
:103220009760C046C0460326013EFDD1400000D253
:103230005760C046641900D3E44300D32406072630
:10324000013EFDD15760C046C0460526013EFDD176
:103250009760C046C0460326013EFDD1400000D223
:103260005760C046CE68240E7443C0460726013E10
:10327000FDD15760C046C0460526013EFDD197608E
:10328000C046C0460326013EFDD1400000D2576033
:10329000C0464D780E79751B4D70C0460626013E1E
:1032A000FDD15760C046C0460526013EFDD197605E
:1032B000C046C0460326013EFDD1400000D2576003
:1032C000C046C046C0460826013EFDD15760C046F4
:1032D000C0460526013EFDD19760C046C046032684
:1032E000013EFDD1400000D25760C0462004C046D8
:1032F0000826013EFDD15760C046C046C0460326A1
:10330000013EFDD10D4F00966246BE6862B6013B9C
:1033100072B6BF68BC46BE4201D2094FF619674675
:10332000F61B87273F01BE4205D8002B00D0BDE524
:10333000039805B0F0BD0020FBE7C04610E000E0B8
:1033400080BB000000B54368020089B00120002B5B
:1033500012D0107E03A90590507E0690907E0790B3
:10336000D0680390108A8880907C887100911268E0
:1033700010210248FFF76CFD09B000BD100000608D
:10338000F0B505000C008BB001F0B6FEAB8CC31A93
:103390009BB2312BF8D972B6236808AE0293A369A9
:1033A00027000893A38BE268B380A37F02A9B371BF
:1033B0001223E3560592228A8B7463680A82039370
:1033C00004936369080018370793FFF7BBFF0028D1
:1033D0001ED162B6C8239B00013BFDD172B62368A3
:1033E000E2680293A36902A90893BB880800B3802E
:1033F000BB79B3711223E3560592228A8B746368FA
:103400000A8203930493636901930793FFF79AFF7A
:1034100062B601F071FEA8840BB0F0BD0721F8B5CB
:103420001B4A0600137801330B401C001370012265
:103430001440134200D080249A0701D5402214433F
:103440000422134201D020231C433500802710346E
:10345000E4B20C350F367F00297B002904D03800F8
:1034600004F002FF0130C1B24B1C63431B12E97030
:10347000DAB2002B08D12B70002901D00139E97094
:103480000135AE42E8D1F8BD013A2A70F4E7C046F2
:10349000A0010020F0B5040015000E008DB01A0048
:1034A0000100684600F0E5FE07226946A77C02A8F5
:1034B00007F0ACFE072202A90AA804960595069516
:1034C00007F0A4FE012F0FD104A8FFF7A7FF6A465B
:1034D00022210023521813700993236820001B6BCC
:1034E00004A998470DB0F0BD00236A4607931384E2
:1034F000EDE7F0B5170005008FB01A00019101004B
:1035000002A800F0B6FEFB17FE185E40AB7C072257
:1035100002A904A8009307F079FE019B072204A9E1
:103520000CA806930796089607F070FE009B06AC61
:10353000012B11D12000FFF771FF0323A374002397
:1035400063619F4201DAFD33A3742B6821002800D8
:103550001B6B98470FB0F0BD002309932382ECE763
:103560000022802313B5084C0192084A5B000092A8
:103570002000074A074900F0E3FA2000064A0749FD
:1035800003F04AFA13BDC046D001002000803B463C
:10359000E0020020E006002000000020A13500002D
:1035A00010B504008068002801D001F027FE20003B
:1035B00010BDF7B50D0000245B0801339B0001929C
:1035C00000932959019B081C1F5905F057FB391C12
:1035D000061C381C05F052FB011C301C04F0E8FFEF
:1035E00003F06AFB009B28510434A342E9D1F7BDE4
:1035F000F0B58DB0049314AB1B7814000A935308F4
:103600000593139B0091002B29D0049B0A2B26D1F4
:103610000025059B013CA4000C199E00AE4200D180
:1036200083E2009B5859139B5959129B002B0CD1D4
:1036300005F024FB009B5851139B2068595905F055
:103640001DFB20600435043CE8E705F04DF9009BC4
:103650005851139B2068595905F046F9F1E72000AD
:1036600005F06AFEFE21890505F022FC0A9B039005
:10367000002B04D0049B9A00E74BD3580B93009B7C
:10368000013CA4001B19019300230293029B059A9D
:10369000934200D149E2180005F04EFE0399041C44
:1036A00005F022F9049A031C501E082800D92EE2C6
:1036B00004F046FD09001D005B008F00D7000901E2
:1036C000490189011402181C07F064FCD34AD44B49
:1036D00006F0DEFD03F0A8F9D24AD34B06F0D8FD80
:1036E00002000B00D148D24907F03EF812E0181C46
:1036F00007F050FCC94ACA4B06F0CAFD03F094F922
:1037000002000B000020CB4907F02EF8C74AC84B37
:1037100006F0BEFD07F086FC041C0A9B002B04D0BB
:10372000201C0B9905F0AAFA041C029B9D00139B18
:10373000002B00D05C51009B5859129B002B00D0ED
:10374000E8E1011C201C05F099FA009B211C58514E
:10375000019B186805F092FA019B1860029B0133E7
:103760000293019B043B019390E7039807F012FC3E
:103770000600201C0F0007F00DFC002204000D00C5
:10378000AD4B3000390006F083FD02000B00200035
:10379000290006F0E9FF0022002304000D00069135
:1037A00004F078FE002805D1802212069446069B7C
:1037B00063441D0022002B002000290005F0F8FDC5
:1037C00032003B0006F05EF902000B000020994930
:1037D0008AE7181C07F0DEFB904A914B04000D00AD
:1037E00006F056FD03F020F9944A954B06000F00B1
:1037F0002000290006F04CFD03F016F9914A0690CE
:103800000791914B2000290006F042FD03F00CF9CE
:103810008E4A089009918E4B3000390006F038FD31
:1038200002000B008B488C4906F09EFF8B4A040077
:103830000D00069807998A4B06F02AFD02000B003E
:103840002000290005F0B4FD04000D00854A864BD8
:103850000898099906F01CFD02000B0020002900C1
:1038600042E7181C07F096FB6C4A6D4B04000D00F4
:1038700006F00EFD03F0D8F8704A714B06000F00F9
:103880002000290006F004FD03F0CEF8774A0690E8
:103890000791774B3000390006F0FAFC02000B006C
:1038A0007448754906F060FF04000D00734A744BBC
:1038B0000698079906F0ECFC02000B002000290096
:1038C00005F076FD26E7181C07F064FB534A544BBD
:1038D00004000D0006F0DCFC03F0A6F8574A584B34
:1038E00006000F002000290006F0D2FC03F09CF82F
:1038F000544A06900791544B2000290006F0C8FC5A
:1039000003F092F85F4A089009915F4B300039004C
:1039100006F0BEFC02000B005C485D4906F024FF87
:103920005C4A04000D00069807995B4B06F0B0FC5A
:1039300002000B002000290005F03AFD574A040060
:103940000D00574B84E7181C07F024FB334A344B17
:1039500004000D0006F09CFC03F066F8374A384B73
:1039600006000F002000290006F092FC03F05CF82E
:10397000344A06900791344B2000290006F088FC59
:1039800003F052F8474A08900991474B300039003C
:1039900006F07EFC02000B004448454906F0E4FEB8
:1039A000444A04000D0006980799434B06F070FC4A
:1039B00002000B002000290005F0FAFC3F4A040039
:1039C0000D003F4B44E7181C07F0E4FA134A144B70
:1039D00004000D0006F05CFC03F026F8174A184BB3
:1039E00006000F002000290006F052FC03F01CF82E
:1039F000344A06900791344B3000390006F048FCF9
:103A000002000B003148324906F0AEFE314A040094
:103A10000D00314B4CE7C046D0B6000068A174548D
:103A2000FB211940713D0AD7A370DD3F48E17A14AC
:103A3000AE47E13F0000F03F0000E03F2CBB1E54CA
:103A4000FB2129400E79577F7CD93240B9E00CFE2A
:103A50007E31DF3F2AA73D25E7C4D63FABB184B511
:103A60003176C23FDEE8633E20D0893FB9FC87F45F
:103A7000DBD7DF3FBCE82B483316DB3F2B6A300D2A
:103A8000C347B43F3B191C25AF4EDF3F04B97A044E
:103A9000ED44D73FA13193A8177CC13F189EF24354
:103AA00000CB853F8EAF3DB32440DF3FF6285C8FCF
:103AB000C2F5D63FBD18CA897615C23FB26323103E
:103AC000AFEB873FBD7ED29A30ABE03F8984A570D3
:103AD000F3FCD13F52CCE6165F59C93F039807F07B
:103AE00059FA0022124B06F0D3FB06000F00201CEF
:103AF00007F050FA32003B0006F036FE32003B0081
:103B000005F0C0FF02000B0006F0C2FB5CE6FE24DD
:103B1000A40502E6211C04F0E7FE009B211C58517D
:103B2000019B186804F0E0FE16E60DB0F0BDC0463B
:103B30000000E03F0020490801D00130FBE770475A
:103B400070B51D0004AB40CB040018780023E5607D
:103B500023806360A36026616261A161984207D0FF
:103B6000084B9D420BD86808800001F03FFBA06025
:103B700029002000FFF7DEFF6060200070BD0120FB
:103B80004042F2E7FDFFFF3F0B68106808601360DA
:103B900070470000F0B50025060017002C0091B01A
:103BA00007935B0801910293079B013BAB421ED92F
:103BB000AC4213D9A3000393019BA200A9009A1859
:103BC00059183000FFF7E0FF179B012B06D1A30027
:103BD000FA18AB003000F918FFF7D6FF029B9C42A1
:103BE00002D3E41A5B08FAE7E4180135DCE70023A6
:103BF000099301330593002304936B4B0893099BAE
:103C0000169A934200D1B3E0059B00255B000D930B
:103C1000059B9B000B93059BDB000E93FE239B05EE
:103C2000069300230393039B059A934272D09C0052
:103C30000B9B0293039B0A930A9B079A934246D2DB
:103C4000029A019B06999B58BE580C930C9805F05C
:103C500015F8291C0F90301C05F010F8011C0F9866
:103C600005F026F906990F90301C05F007F8291C7D
:103C7000061C0C9805F002F8011C301C04F098FC9E
:103C8000019B0F99061C185905F012F9029A019B25
:103C9000311C9850385905F00BF9029B0F99F850D8
:103CA000019B185904F084FC019B311C18513859B0
:103CB00004F07EFC38510A9B0D9A94460E9A634498
:103CC00094460A93029BA41863440293B4E70699AE
:103CD000089804F0D3FF291C041C049804F0CEFFBC
:103CE000011C201C05F0E4F8291C041C089804F0B1
:103CF000C5FF0699051C049804F0C0FF291C04F0B8
:103D000057FC039B051C013303930B9B0694043360
:103D10000B9388E7FC210898890504F0AFFF07F0B2
:103D200039F902000B0004000D0000201F4906F0C5
:103D30001BFD02F05DFF07F075F91C4B002204909B
:103D40002900200005F034FB02F052FF07F06AF969
:103D5000179B0890002B05D1802212069446049BE5
:103D600063440493099B013309930D9B059346E734
:103D7000179B012B16D10024079B9E00B44211D043
:103D8000079805F0D9FA019B011C051C185904F08D
:103D9000ABFD019B291C1851385904F0A5FD385181
:103DA0000434EBE711B0F0BD000080BF0000E03F3D
:103DB000F7B50E0019001D0017000400FFF7BAFE4A
:103DC000089B3A003100019300902B002000FFF780
:103DD000E1FEF7BD00207047F8B505000E001700A2
:103DE0000024BC4208D02B682800315D1B6898472E
:103DF000002801D00134F4E72000F8BD704703002B
:103E0000FC33196ADA69914203D01B6AC018007E3C
:103E1000704701204042FBE70300FC33D8691B6A6E
:103E2000C01A01D50130FF3070470000F7B501938B
:103E3000FA238027002504009B008360114B7F003C
:103E400008330E0045602900009203603A001830E4
:103E500007F0E5F923002000FC332130DD613A0052
:103E60001D622900FF3007F0DAF987239B00E31871
:103E70005D609D60009B20002375019B2661A575F8
:103E80006375FEBDFCB600000200FC32536810B53D
:103E900001339468DBB29C4202D0546801555360F0
:103EA00010BD10B50300827D002082420ED0872213
:103EB00092009C186268A4680132D2B2A24205D076
:103EC0002133FF331800FFF7DFFF012010BD03008F
:103ED000FC3399685A68914206D09A68805C9A6867
:103EE0000132D2B29A60704701204042FBE710B520
:103EF0001830FFF7ECFF10BD70B50400006900F04A
:103F00009CFD002814D0206900F0A5FD002810D0E9
:103F1000206900F063FD0321206900F069FD8C2316
:103F20009B00E558002D39D10023FC34E361236266
:103F300070BD206900F099FD002809D0206900F0CB
:103F40008FFD002804D0206900F094FD0028DFD008
:103F5000206900F08AFD002826D1206900F076FD56
:103F60000028E5D0206900F085FD002837D08723A0
:103F70009B00E218536892689B1A01D50133FF3306
:103F8000FF21002B05D020002130FF30FFF79FFFDD
:103F9000C1B2206900F042FDA075C9E72368200086
:103FA0001B699847A847BFE7206900F017FD206903
:103FB000032100F01DFD206900F05CFD0028B7D052
:103FC000872300229B00E3185A609A600123A3759F
:103FD0008B239B00E3589342AAD09847A8E722007E
:103FE000FC32D369126A0133DBB22069934206D1F5
:103FF00000F0EBFC0321206900F0FAFC98E700F0E8
:104000003EFD010020001830FFF73EFF206900F060
:10401000E5FCEFE710B50248FFF76EFF10BDC046A4
:10402000E00A002010B50223002202490248FFF7EF
:10403000FDFE10BDD0110020E00A002010B500F0F8
:10404000EBF900F0FFFA10BDFF23012203700023FB
:1040500052424380C360826043607047F7B50400FA
:1040600015001E0017000191002B01DC160000272F
:10407000236820001B69984703217943019B200096
:10408000591823686160DB6A66619847011E08D091
:10409000084804F0E9F8084E7368834200D2030030
:1040A000736000F0B9F9EA1B210000F0E8FA200083
:1040B000FEBDC04640420F00140D0020F8B50E4C66
:1040C000050023685A1C22608B4214DB01F00EF8B5
:1040D0000700FA20094E2368326880005843B91A55
:1040E000974200D1012104F035F800236880236055
:1040F00000F0FCFF3060F8BD300E0020340E0020D0
:10410000F7B50400009100F087F900F061FA6368E8
:10411000324D002B06D000F0EFFF2B68C01A636809
:104120009842F4D300F0E8FFE3682860002B03D046
:10413000A168009898470090294F2A4E3D68002DAD
:104140001AD0294BB34217D0EB7C002B12D02B682E
:1041500028005A6ADB6901929847019B01002800F8
:10416000984730606388632B01D80023AB74AD6837
:104170000436E4E73360F5E740263D68002D0DD0B6
:10418000EB7C002B06D02B6828005F686A69009BD7
:104190006968B847013EAD68002EEFD10026104B8C
:1041A0001D68002D0ED0402E0CD0EB7C002B06D0CD
:1041B0002A680C49B3002800926AC9589047AD6834
:1041C0000136EEE719212000FFF778FFFFF736FFF1
:1041D00000F022F900F019FAF7BDC046240E0020C5
:1041E000280E0020240D0020240E002010B50248C7
:1041F000FFF72AFF10BDC046140D002001207047B4
:10420000704700000C4B0122083303600023436019
:1042100083604361094B5242C2608361084A094B83
:1042200002611A68002A00D11860074B1A68002A38
:1042300000D090601860704720B70000701703002E
:10424000FFFF0101280E00202C0E00200300406813
:104250000A0010B500280BD05B69002900DA1A00AB
:104260009A4200DD1A0003214A43002106F0D7FFDD
:1042700010BDF0B50D000F0087B001920C370F355F
:1042800006002A003900019800F02AF8020405AB64
:10429000120E18705A70000204AC1B88000E210028
:1042A000A07003223000238006F0B0FF2A003900FE
:1042B000FF2000F015F803041B0E207063702388A4
:1042C000000202AA000EA07003A99380907103223D
:1042D000F01C06F09BFF3000019BB37107B0F0BDEE
:1042E00037B500236C462380A37098420FD0CC5C76
:1042F000002C09D0D55C002D06D0013501346C436B
:104300006D464443240CEC540133032BEFD16B4630
:104310001A8899781000FF23120A184012020B40E5
:104320001B04104318433EBD037801314B431B125D
:10433000037043784B431B1243708378594309122F
:104340008170704770B50325160004004D43451970
:10435000AC4205D020003100FFF7E6FF0334F7E759
:1043600070BDD24310B5D2B2FFF7ECFF10BD70B5EF
:10437000051E09D0C400200006F034FF051E03D03E
:104380002200002106F04BFF280070BDF7B5002782
:1043900004000D000192076041608160B9420BD0BA
:1043A0000800FFF7E4FF2060FA00019B8218013744
:1043B00042CB42C2BD42F7D12000FEBDF7B5104F3F
:1043C00001263B680F4D1C003440334215D180223A
:1043D00021000D482C7006F022FF2B0008336A469E
:1043E00021000A48DC6700940194FFF7CFFF280002
:1043F000074A08493E6002F00FFB2800FEBDC04698
:10440000380E00203C0E0020400E0020C40E00207C
:10441000000000207B44000010B5FFF7CFFF10BD67
:104420000322031DDB6F02409200DB009B18C018C3
:104430007047037810B5002B05D08830836800687A
:10444000DA00801810BD0430FFF7EAFFFAE7043005
:10445000C36F002B02D0013BC367F9E7704703002D
:10446000883310B504001868002801D006F0C4FE97
:10447000201DFFF7ECFF200010BD10B50400FFF772
:10448000EEFF200010BD30B5041DE26F0F2A09D8E1
:1044900003230340D5009B005B19C018013228C9D3
:1044A00028C0E26730BD4268F8B505000C008A42BA
:1044B0001BD2032353435B08994200D21C00200007
:1044C000FFF755FF00220600AB682868934206D923
:1044D000D300F118C31881CB81C10132F4E7002861
:1044E00001D006F089FE2E606C60F8BD436810B5FF
:1044F0008B4201D2FFF7D7FF10BD70B5040083686F
:104500000D00591CFFF7CFFFA26863689A4206D2DC
:104510002168D300CB18013203CD03C3A26070BD64
:10452000F0B50025040087B0061D802201910570BA
:104530002900300006F073FE270023008837083377
:10454000DD672900380004AA04950595FFF71EFFD2
:10455000019B1B780293AB421DD0019988318F4299
:1045600014D00E6889683800C900731801932300BD
:1045700090331D60C910FFF7B9FF019BB34205D00E
:1045800031003800FFF7B9FF0836F6E701232000B5
:10459000237007B0F0BD019B1D1DAE4216D008333D
:1045A000DB6F30000393FFF752FF03210D40019BA7
:1045B0000135AD00029F5D19039BBB4206D0290067
:1045C0003000FFF760FF01370835F5E70023DEE72D
:1045D00030B5A7B001006846FFF7A2FF6B461B7815
:1045E00001AC002B00D0229C6846FFF722FF05009B
:1045F000A54205D02068083403689B689847F7E710
:104600006846FFF72CFF27B030BD30B5A7B00100DA
:104610006846FFF785FF6B461B7801AC002B00D086
:10462000229C6846FFF705FF0500A54205D02068DB
:1046300008340368DB689847F7E76846FFF70FFF21
:1046400027B030BD30B5A7B001006846FFF768FF5E
:104650006B461B7801AC002B00D0229C6846FFF70C
:10466000E8FE0500A54205D02068083403681B69F0
:104670009847F7E76846FFF7F2FE27B030BDF0B580
:10468000A7B00D00010068461600FFF749FF6B4612
:104690001B7801AC002B00D0229C6846FFF7C9FEB6
:1046A0000700A74207D020683200036829005B6931
:1046B00098470834F5E76846FFF7D1FE27B0F0BD0C
:1046C000F7B50E001500002403270190B44209DA63
:1046D00038006043019B03222900181806F096FD5C
:1046E0000134F3E7F7BDF0B585B00193FF230E0069
:1046F0000025032703ACA3700F3B0090227063706A
:10470000B5420CDA39006943009B2000591800F0CB
:1047100008F82378019A0135D3182370F0E705B023
:10472000F0BDF0B507784478FE00F3B29C465623FE
:104730006246857853432020402238403A407FB279
:104740001B0A002F55DB002A41D1002804D1DE438B
:10475000F6B21A00330004E05533DBB210001A0041
:10476000AB23FF2C19D0002C67D0E443E4B26443A0
:1047700024120134E4B2E643F6B2013673431B124D
:10478000DFB272431212D2B246433612F0B23F1970
:1047900012190019FBB2D2B2C0B21600FF2D12D00E
:1047A0002C006C436E1EB54124122D19EEB2002E62
:1047B00047D0741C63431B12DBB262431212D6B2A1
:1047C00060430012C0B24E700B708870F0BD0028BC
:1047D0000AD16246AB265643552236125242961BE8
:1047E000563BF6B2DAB2B5E70026DA431800D2B289
:1047F000B0E7002A0FD100280AD1AB2663465E43FA
:10480000553A360A921B55360300D2B2F0B2A8E7E9
:10481000D843C0B2A5E71E00002807D15536F6B22E
:1048200055225242D31A0200D8B293E7563E0022D4
:10483000F6B25520C01AC0B28CE7FF200200030078
:10484000ABE730003300BEE710B5034800F0FCFAD8
:10485000FFF7E0FB10BDC046D40E002013B50D4C91
:104860000D49200000F028F80C490D4800F024F80C
:104870000C490D4800F020F80C490D4800F01CF8D8
:10488000002301222100009201939218094800F0B0
:1048900071FA13BDD011002000080042000C004244
:1048A000D411002000100042D81100200014004252
:1048B000DC110020D40E0020016070479446F0B552
:1048C00005AC25789C1E621E9441624606689207DC
:1048D000376824063A4322430724326000682140A7
:1048E000AD01002442682943022B00D05C030A4337
:1048F00022434260F0BD30B5C0250368AD031C689B
:1049000012052A402243C0240904A40221400A437C
:104910001A6003685A6814435C6030BD0123026862
:1049200011680B43136003681A68D207FCD4DA6974
:10493000D207F9D470470223026811680B43136051
:104940000268D3699B07FCD4704703681A7ED207BC
:1049500002D41A7E9207FCD57047002203685A835E
:1049600070470368187E4007C00F70470368187EC1
:10497000C0097047802302685B42117E0B431376A7
:1049800070470368588B8007C00F70470223026886
:10499000518B0B43538370470368187EC007C00FC9
:1049A00070470368188DC0B2704703681A7ED2073B
:1049B000FCD589B2012019857047012203689A75D8
:1049C0007047012203681A75704780230268DB0272
:1049D000116851680B435360704700000368034936
:1049E0001A685A680A405A607047C046FFFFFBFFCA
:1049F000032230B5036811401C68074D5A6809044A
:104A00002A40E4061143640F5960052C03D1026863
:104A1000D3695B07FCD430BDFFFFFCFF036828337C
:104A200019700268137E5B07D80F002B04DA01238C
:104A3000508B4007C00F5840704703681868C00685
:104A4000400F043843425841C0B270470368187E93
:104A50004007C00F70470368187EC007C00F70473B
:104A60000368588BC006C00F70470368187E800724
:104A7000C00F70470368588B0007C00F704703686A
:104A80001A68D206520F052A02D11A7E9207FCD567
:104A900028331878C0B2704703680B4A93420DD090
:104AA0000A4A93420CD00A4A93420BD00120094A89
:104AB0004042934201D1043040B270470020FBE7EE
:104AC0000120F9E70220F7E700080042000C00424D
:104AD0000010004200140042F8B5FFF7DDFF002887
:104AE0002CDB1D4BC000181805230479C356032086
:104AF000FF221840C0008240C021D2438140002BD9
:104B00001DDB1F2501201D40C026A840134D760047
:104B1000A851C0269B089B005B19B6009F593A40DC
:104B20001143995128603F2323408024E4011C4312
:104B30000B4B5C805A7852B2002AFBDBF8BD0F2089
:104B40000340083B07489B089B001B18D86902409C
:104B50001143D961E7E7C04650B9000000E100E029
:104B6000000C004000ED00E0F8B504000F00160056
:104B70001D00FFF7B1FF2000FFF7D0FE1C21BB0096
:104B80000B4071072268090C0B43136084232268D1
:104B90009375012F1AD11021012E00D008390C4B2A
:104BA00069431868C00003F0D5FA07222168024063
:104BB0008B895203DB04DB0C13438B8122680304D3
:104BC0009089DB0C400B400318439081F8BDC04630
:104BD000700000200120704710B50368014A1B6A6D
:104BE000984710BD130400000300FC33D96F9A6F7F
:104BF000914203D0DB6FC018007D70470120404216
:104C0000FBE710B504000069FFF788FE22000023CF
:104C1000FC329367D3679E229200A4186366A36652
:104C200010BDF0231B011940802306209B009942F0
:104C30000AD00133FF330130994205D08023002090
:104C40005B00994200D1053070470F2001400020E1
:104C5000012903D00239481E8141481C70470000D9
:104C6000B923F0B5182785B002919B000400C05C01
:104C70003B0008214343324E1500F318595600F00B
:104C800049FD304B0821E05C3B004343F318595683
:104C900000F040FD2C4BE25C0393022A09D1113352
:104CA000E05CFF2805D008214743F719795600F04A
:104CB00031FDBA27BF00E05DFF2819D0012100F0C7
:104CC000B5FC1822E35D21495A43B356B618DB01FF
:104CD0005818BB21890060501D4901225B18BC2176
:104CE0008900635071688A40BD21890062501A6052
:104CF0000122029B11002069FFF736FF29002000E6
:104D0000FFF78FFF290006002000FFF79EFFF0222B
:104D10001540303D6A4255410300310020690122AF
:104D20000095FFF7CBFD0B4B2069E25C039BE15C38
:104D3000FFF7E1FD2069FFF7FEFD05B0F0BDC046BD
:104D400058B70000E5020000E702000018440041E7
:104D500014440041E6020000AF2210B50400002117
:104D6000520006F05CFA23000022FC3320005A6651
:104D70009A6610BDF7B51D0008AB1B7804000093C0
:104D800009AB1B781600019300234360FA239B00B4
:104D90008360104B0F00083303601430FFF7DCFF13
:104DA00020007D30FF30FFF7D7FFB9239B0027613C
:104DB000E654094B009AE554084B2000E254019A4E
:104DC000074BE254BA22E93BFF3B9200A354103256
:104DD000A354FEBD70B90000E5020000E602000029
:104DE000E70200000300FC33586E9B6EC01A01D529
:104DF0005F30FF30704710B5040020007D30FF3079
:104E0000FFF7F0FF0028F8D12069FFF79EFD10BDE5
:104E100010B51430FFF7E6FF10BD0300FC33596EE8
:104E20009A6E914205DB5A6E986E801A5E30FF30A2
:104E30007047986E5B6EC01A0138F9E710B57D3087
:104E4000FF30FFF7EAFF10BD70B504000069FFF7FF
:104E500098FD002805D02069FFF7A3FD2069FFF722
:104E600095FD2069FFF77DFD002824D025002069ED
:104E7000FFF797FDAF21FC350600A86F4900013010
:104E800003F0EEF9EB6F994203D0AB6FE3181E7598
:104E9000A967BA239B00E35CFF2B0CD020001430E1
:104EA000FFF7BBFF092806DCBB23BD229B00920055
:104EB000E358A2581A602069FFF76EFD00281DD044
:104EC00020007D30FF30FFF78DFF002825D09E2386
:104ED0009B00E618B26E736E9A421BD0BE22AF21C1
:104EE000B36EB06EE3185200013049009D5C03F0D0
:104EF000B7F9B1662069E9B2FFF757FD2069FFF7FE
:104F000035FD002805D02069FFF734FD2069FFF743
:104F100024FD70BD01256D42ECE72069FFF751FDCE
:104F2000ECE70000F7B5040000690E00FFF734FD60
:104F3000002847D1AF277F009E239B00E518686EAD
:104F4000AB6E39000130019303F08AF9019B99425D
:104F500024D1EFF31083DB070ED4204B5B68DB0515
:104F6000DA0D002BE8D0103A53B212060DD49B088C
:104F70001B4AC0339B009B582069FFF70DFD00289A
:104F8000DAD02000FFF760FFD6E70F221340083B7E
:104F9000144A9B089B009B181B68EDE7AF21686EC5
:104FA0004900013003F05CF9AB6E994205D0BE2296
:104FB0006B6E5200E3189E5469662069FFF7FDFC92
:104FC0000120FEBD20007D30FF30FFF70BFF0028E1
:104FD000B0D131002069FFF7E8FCF1E700ED00E017
:104FE00000E100E01CED00E070B50500FC35EA6F63
:104FF000AB6F04009A421DD0AF21EB6F4900C3187C
:10500000E86F1E7D013003F02BF9E967BA239B009E
:10501000E35CFF2B0CD020001430FFF7FEFE0A28C3
:1050200006DDBC23BD229B009200E358A2581A6003
:10503000300070BD01267642E8E710B5041E05D0A9
:1050400006F09EF9210003F0F5F90C00200010BDD8
:1050500010B50400884203DA081AFFF7EEFF24189F
:10506000200010BDFEE7FEE7034B10B51B68002BC8
:1050700000D0984710BDC046E01100200F4A1048EC
:10508000110010B50F4B824202D0934209D1130098
:10509000824209D100F0B6F800F082F8FEE710CBAA
:1050A00010C18142FBD3F3E7074A8B42F2D00021C3
:1050B000064B9A42EED202C2FBE7C0460000002037
:1050C00084010020A4BD000084010020E817002016
:1050D00010B500F062F8002801D100F053F810BDBF
:1050E000014B18607047C046E0110020014B186862
:1050F0007047C046E4110020F7B5134801228446EA
:105100001249134C8E68636805689B0E1340019228
:1051100088686268019F920E3A4067463F689342F2
:105120000ED1BD420CD186420AD35B19FA254868DC
:10513000AD00861B07486B437043000DC018FEBDD1
:105140003D0013000600E3E7E411002010E000E05A
:1051500000ED00E05555000070B5041E11D0FFF7BA
:10516000CBFFFA260500B60000F016F8FFF7C4FFE3
:10517000401BB042F8D3FA23013C9B00ED18002CF1
:10518000F4D170BD10B5034A13680133136000F009
:105190003FFB10BDE41100207047002070477047AE
:1051A00010B500F0F9F805F0F7FFFFF7F8FF012060
:1051B000FFF7D2FF094C200000F088FD200000F02E
:1051C000FDFDFDF727F8FDF729FEFFF7E5FF044B8E
:1051D000002BF8D000E000BFF5E7C046E811002042
:1051E0000000000010B505F0FDFF10BD10B505F082
:1051F000F9FF10BD10B505F0FFFF10BD10B505F0AB
:10520000FBFF10BD1E22F0B5504851494368514D77
:1052100093431A0002231343436008238A6913430C
:10522000FE228B612B68D2039B0213404A4A134330
:105230004A4A936113000422DC681442FCD0012422
:10524000474A14701678264203D0567876B2002E5C
:10525000F8DB01249460547864B2002CFBDB414CF1
:105260005460547864B2002CFBDB8224E401548047
:10527000547864B2002CFBDB02249C840E34DE687C
:105280002642FCD0384CDC621024DE682642FCD07A
:105290002C68A40E3F2C00D1203C9E6A334FA40200
:1052A0003E4034439C629C6A314EA40AA4023443BB
:1052B0009C62304CDC6200249C841034DE68264200
:1052C000FCD02D4C9C841024DE682642FCD00224A5
:1052D0009E8C34439C841024DE682642FCD000243B
:1052E0009460547864B2002CFBDB244C54605478F6
:1052F00064B2002CFBDB1C6A214E344080261C6209
:105300001C6AB4431C62032393601E4B53605378A2
:105310005BB2002BFBDB0023FF240B721A4A4B729B
:105320008B72CB72194B1A60194A2B6811689A0656
:105330005B01C90E2340520F12020B431343154A5F
:1053400013858023426813434360F0BD0040004151
:1053500000040040246080000606000000080040B1
:10536000000C004001040100B905FF7DFF03FFFFB1
:10537000FF01000080BB0A1C240500000007030099
:10538000FFFCFFFF03060100006CDC027000002040
:105390002060800000400042FA212E4B10B51868B2
:1053A000890002F0D7FE802301385B0498424FD277
:1053B00029492A4A4860C020136A00061B021B0ABA
:1053C0000343136200238B6007330B608021136A51
:1053D00009061B021B0A0B431362FC22204B196AAD
:1053E0000A431A62FF22196A12020A431A62A022B1
:1053F000196AD2020A431A621A4B1C005A7852B236
:10540000002AFBDB184A5A80184B1A00597EC9093A
:105410000129FBD0C821890099800521D970537ECC
:10542000DB09012BFBD0C02300205B0113619070CE
:1054300000F048F863785BB2002BFBDB0C4B0D4AA5
:105440006380D379DB09012BFBD04123537010BD5E
:10545000FEE7C0467000002010E000E000ED00E034
:1054600000040040000C00401E40000000400042CC
:1054700021400000004800420F4B302218600F49C5
:105480000F4B0A2809DD988890439880243A0A60D7
:105490005A7ED209012AFBD07047082806DD988879
:1054A0009043202202439A800A22F0E79888024320
:1054B0009A800822EBE7C0467800002074000020A4
:1054C000004000421F4900B50B004A7ED209012A64
:1054D000FBD001380A282FD802F028FE1B2E2E2ED2
:1054E0002E2E062E2E2411001A6917490A400F216C
:1054F0001A615A788A43110001220A4310E01A699E
:1055000011490A400F211A615A788A431100032277
:10551000F3E71A690C490A400F211A615A788A4345
:105520005A7000BD1A6908490A400F211A615A7859
:105530008A4311000222E0E7F022196912050A43AA
:10554000F3E7C04600400042FFFFFFF010B5040043
:10555000052800D808340121200000F0DBF8082CD1
:105560000DD12D4B1900DA79D209012AFBD0022086
:105570001A7882431A70CB79DB09012BFBD02749BB
:105580000B004A7ED209012AFBD018206043244C2C
:105590000A692418207C1F242040A24302430A6188
:1055A0005A7ED209012AFBD0022219780A431A70C6
:1055B0005A7ED209012AFBD00222197B0A431A73B0
:1055C0001A7ED207FCD501221A765A7ED209012A08
:1055D000FBD00222197B0A431A731A7ED207FCD52C
:1055E000588B80B25A7ED209012AFBD002211A7848
:1055F0008A431A705A7ED209012AFBD0094B1A68D5
:10560000094B1B689A4202D002D9D31AD84010BD68
:105610009B1A9840FBE7C046004800420040004209
:1056200058B700007400002078000020182310B53F
:1056300008245843134A13181C57013412D001246C
:105640005B6882569C4003290CD808000E49D201A1
:105650005218D318403302F069FD0210060B0221E4
:105660001970546010BD0621197054609461F9E7F7
:105670000621197054605461F4E742211970946056
:10568000F0E7C04658B70000004400411823F0B5C9
:1056900008245843114A13181C5701341BD0012603
:1056A00035005F688356BD400D4ADB019A1890684B
:1056B00005420BD10C00601E8441D2194032107893
:1056C00034400336A400B04320431070044A9B18B2
:1056D000002901D15D61F0BD9D61FCE758B7000074
:1056E00000440041182310B5082443430749002013
:1056F000CA181457013408D05B560549DB015B1802
:10570000186A5368D8400123184010BD58B70000EC
:1057100000440041182370B5082643432A4AD5188F
:10572000AE573400013607D0072907DC00291DDAFF
:1057300001314C424C416442200070BD0B00083BDB
:10574000DBB20024032BF7D8092903D12100FFF78E
:105750006DFFF1E70A2904D10839FFF767FF00243C
:10576000EAE700240B29E7D10A39F0E76C68012544
:1057700020009B56C9B262082840DB012C4211D0A0
:1057800012480E351B189A1830321078090128403B
:105790000143C9B2117041221B19403319780A43E1
:1057A0001A70DCE70F26094D5B199A18303215780C
:1057B0001B19B54329431170412240331978040065
:1057C0000A431A70B8E7C04658B7000000440041C9
:1057D000F8B505000E0017000024BC4208D02B6865
:1057E0002800315D1B689847002801D00134F4E798
:1057F0002000F8BD014B18607047C0467C000020B7
:105800000122024B52421A607047C0467C000020C1
:10581000124A1368591C20D0013B1360002B1CD185
:1058200072B60F4B01221900187D1042FCD02022C5
:10583000188BFF3202431A830A4ADA610A4A1A8035
:1058400001230A7D1A42FCD0BFF34F8F074B084A51
:10585000DA60BFF34F8FC046FDE770477C00002041
:10586000004000410210000002A5FFFF00ED00E033
:105870000400FA05704770B50F26CB1D02003240B8
:10588000D5B22C0000093034092A00DD07341C7021
:105890005A1E994200D170BD1300EFE710B5040005
:1058A000806905F0A9FCA06A05F0A6FC200010BDE7
:1058B00010B50400FFF7F2FF2000FFF79BFC20006B
:1058C00010BD000070B5032908D1324B8000C058CC
:1058D000002802D00368DB68984770BD82291FD179
:1058E000C3B22D4D5A01AA1891692C4C80010C406D
:1058F000C02189052143916129490833401880213D
:1059000050612A685B01D018047949422143017132
:105910007020995C81430800302101439954DCE7F1
:105920000029DAD1C024C1B21B4E4A01B2189368D3
:105930001A4DA4052B40234393601A4B8001C018D5
:105940000B0050603068072608335B01195CB143D7
:105950000E0001213143195491690D402C4394618B
:1059600070240F495161195CA1430C00102121439F
:10597000195491680C4CC3180C40802149032143F1
:1059800091609168890B89039160402259790A439B
:105990005A71A2E7EC110020A0160020FFFFFF8F34
:1059A00014120020D4130020FF3F00F0EFF3108307
:1059B00003600123436072B670470368002B02D175
:1059C00062B6BFF36F8F704737B50569040068464C
:1059D000002D14D1FFF7EAFF019B621D013B02D3AA
:1059E000D57FEDB2FAE768460193FFF7E6FF002D99
:1059F00001D100203EBD206AE369C01AFAE7FFF733
:105A0000D5FF22000025019B3432013B02D31578DB
:105A1000EDB2FAE768460193FFF7CFFF002DE8D01B
:105A2000206BE36AE9E70000F0B5FF250126426834
:105A3000836811682B405B01CC186419A77AD318CE
:105A40003E43A672C6689C680B4FB60436093C40BC
:105A500034439C6083682B405B01D2189468A40B8C
:105A6000A4039460402283682B4008335B01CB1869
:105A700019790A431A71F0BDFF3F00F0F7B50569C7
:105A800004000E0017006846002D43D1FFF78EFF7B
:105A9000019B601D013B5A1C0BD0C27F591E002A7E
:105AA00005D168460193FFF788FF2800FEBD0B0073
:105AB000F1E768460193FFF780FFE369AF420AD040
:105AC000226A9A4207D95A1CE261A269D3181B784C
:105AD00073550135F1E7226A9A42E6D10023E3616A
:105AE000013368462361FFF761FF22000021019B1B
:105AF000671D013B3532581CD3D0F97710785E1EF4
:105B0000002805D0200011700193FFF78DFFECE70E
:105B10003300F0E7FFF74AFF2000019B3430013BE0
:105B20005A1C06D00278591ED5B2002AB9D00B00F3
:105B3000F6E7684601930025FFF73FFFE36ABD42A1
:105B400002D0226B9A421CD8226B9A42ADD100231C
:105B50006846E3622361FFF729FF27002200002146
:105B6000019B3437013B3532581C9AD0397010787C
:105B70005E1E00280DD0200011700193FFF754FF26
:105B8000EBE75A1CE262A26AD3181B787355013501
:105B9000D4E73300E8E7F7B582684368D2B2110072
:105BA00004000831186849014118C879C00729D58F
:105BB00001255201CD719B189A6861699204920C7B
:105BC000002923D12262226A002A41D0A26A65619B
:105BD00068465A60FFF7EAFE342294462200019B91
:105BE000671D013BA4443532591C2DD06146FD7719
:105BF0000978581ECEB2002905D001936846157069
:105C0000FFF7DBFEF7BD03001670EDE72263226BA2
:105C1000002A1DD0002227006261A26968465A60EE
:105C2000FFF7C4FE019B621D9446013B34373032BE
:105C3000591C09D061463D70C97F581ECEB200295B
:105C4000DBD103001670F3E768460193FFF7B5FE5A
:105C50002000FFF7E9FED5E713B56A4600230C00E4
:105C6000D01DD37100F0EAFD23681818206000F001
:105C700079FE6B46D91D00F041FE236818186B466B
:105C80002060D87916BD000003290ED180220E4B6A
:105C900062311B68FF31585C524202435A546822F9
:105CA0006339FF32FF39995470470129FCD18022B2
:105CB000054B24311B68FF31585C524202435A5451
:105CC00028222339FF32EDE7A016002070B5002509
:105CD0002F4B012104000F201D70FFF7A7FC0121AD
:105CE0000F20FFF7D3FC2B4B01210E201D70FFF777
:105CF0009DFC01210E20FFF7C9FC2023264A0F201E
:105D0000D1690B43D361012224490B7813430B70F3
:105D1000234B19788143197006211D782943197086
:105D200020490D782A430A701A7802401A706022BE
:105D300019780A431A701C4B1C4A5A805A78D209A7
:105D4000FCD11B48FFF7CCF91A4D280000F01EFECD
:105D5000280000F031FE7F212B68C1201A788000D6
:105D60000A401A70042219780A430C211A701A8901
:105D70008A4311491A810A581202120A0A508022D3
:105D80000A6019787E3A0A431A700123237070BDA5
:105D9000091200200812002000040040584400416D
:105DA0003C44004159440041000C004006400000C2
:105DB00081670000A016002000E100E000780028C4
:105DC00010D00121084B1B681A898A431A810822C6
:105DD000198B0A431A830422198B0A431A8300225F
:105DE000024B1A607047C046A0160020981600208B
:105DF0000A000E498B699B0B9B038B610B68022188
:105E0000FF3319729879823901439971197A890798
:105E1000FCD57F20064B0240997A814311438022B2
:105E20009972997A52420A439A727047A0160020DA
:105E30000050004110B50B790C00002B0CD108006C
:105E400000F00AFD002801D0012010BD094A936925
:105E50009B0B9B039361F7E700F084FD210000F0AA
:105E600071FD0028F0D1034A93699B0B9B0393615A
:105E7000EBE7C046A0160020F7B50D001100832AFD
:105E800019D1EBB2324C5A01A21891693148AD01D7
:105E90000840C0218905014391612F4920686D1890
:105EA0007021083355615B011A5C8A43110040225E
:105EB0000A431A54F7BD022A45D1284AAB00985824
:105EC000002802D003685B6998473820FFF78AF9F9
:105ED000234B8027036000231D4E7F00421D036279
:105EE00003614361C36146608560C760D3772F3229
:105EF000C3620363040013703800537005F072F935
:105F00000190A061380005F06DF9EBB25A01A06272
:105F1000B21891680F4808330840C0218905014331
:105F20009160316807265B01585CAD00B043060004
:105F3000032030435854019B20005360FFF774FD49
:105F4000064B5C51B6E72800FFF7BCFCB2E7C04641
:105F5000A0160020FFFFFF8F14120020EC1100207C
:105F6000B0B9000070B505000124064BA200D2585C
:105F7000002A05D021002800FFF77EFF0134F4E756
:105F800070BDC04680000020084B8A00D05810B574
:105F9000002803D003689B68984710BD044BC9B222
:105FA0004901591888688004800CF6E7EC1100203C
:105FB000A016002010B50C00FFF7E6FF00280CD05B
:105FC000064BE4B219688023083464010C19627925
:105FD0005B42134363710223E37110BDA0160020DE
:105FE00070B5CBB2124A13485C01890189180219B5
:105FF00051609168104D08330D408021890229437A
:10600000402591609168890B8903916001685A016C
:106010008A1816793543157195796D06FCD55B01A3
:10602000C918CB79DB07FCD500198068C0B270BDF8
:10603000D4130020A0160020FF3F00F070B514001C
:1060400040220B4B0D001B68FF3359790A435A71EC
:106050000021FFF7C5FFA04200D920000023054919
:10606000A34203D0CA5CEA540133F9E770BDC046CD
:10607000A0160020D413002010B50C48C9B2490165
:10608000421893689B049B0C3F2B0BD99468403BB0
:106090009B04A40B9B0CA4032343936041188868C2
:1060A000C0B210BD93689B0B9B03F6E7A0160020BF
:1060B000F0B51C002F4B85B01B6806000D00019247
:1060C000002B54D02C4F3B78D9B2002B02D10E209C
:1060D000FFF7DCFA64233B70284BAA00D058002855
:1060E00008D0036822005B680199984704002000EB
:1060F00005B0F0BD29003000FFF746FF844204D907
:1061000029003000FFF740FF040029003000FFF7AE
:10611000B3FF0121EBB21A4F03935B010293029A82
:106120003B6801989B18FF335A7A0A435A72154B01
:10613000A9012200C91805F069F8002CD7D0290060
:106140003000FFF721FF0028D1D14021039B3A689E
:1061500008335B01D3181879014319710121D971F2
:10616000029BD318FF339A7A0A439A72BFE701243D
:106170006442BCE79816002008120020EC110020B1
:10618000A0160020D413002013B56B46DC1D22009E
:106190000123FFF78DFF012801D1207816BD0120D2
:1061A0004042FBE7F0B51C003A4B85B01B680E007F
:1061B0000192002B3FD08023DB019C423BD8364D1F
:1061C0002B78D9B2002B02D10F20FFF75FFA64239E
:1061D00000272B70314BB201D3180293002C2CD026
:1061E0002F4B1B680393FF2333401D00009308359A
:1061F000039B6D015D19AB79DB0921D0294B2A493D
:10620000186801F0A7FF294B1721584301F0A2FF9E
:10621000274BEA79920713D49A5D002A01D10138FD
:10622000F7D201229A55009B5A011D4B9B189A697F
:10623000920B92039A6101277F42380005B0F0BDAE
:1062400000221B4B25009A55402C00D940252A00DE
:106250000199029804F0DAFF009BA9045A01104B3F
:10626000890C9B18029A7F195A619A69641B920BD8
:1062700092030A439A61009B039A08335B01D31887
:106280000222DA715979823A0A435A71019B5B19E9
:106290000193A3E798160020091200201412002091
:1062A000A01600207000002040420F007011010075
:1062B0000B12002070B50C001D000D4BA601F61846
:1062C000110030002A0004F0A1FFE4B2094A640181
:1062D00014196661A369084928000B40A361A169EC
:1062E000AB04890B9B0C89031943A16170BDC046A7
:1062F00014120020A0160020FF3F00F0F7B5104B4D
:106300000F001B7814000190002B0CD10D4B1600D0
:106310001D78002D09D00C4E0C48358828182D19F1
:1063200004F074FF35802000FEBD002EFBD033004A
:106330007A1900210198FFF7BDFF2D18361AF4E7EE
:106340009415002095160020961600209515002023
:10635000F8B50F0016000024012A26D9100004F019
:1063600041FF0500380005F04FF8032302220130F9
:10637000400028706B7096420DD9397800290AD0F8
:10638000531CDBB20137A9549E4203D00232EC54B5
:10639000D2B2F0E7320029000548FFF7AFFF441EF4
:1063A000A041C4B2280004F027FF2000F8BDC04679
:1063B000E8110020F0B50025012785B0184B0E002C
:1063C00069461F7004000095FFF746FC154B01A9B4
:1063D0000B806A3BFF3BCB716E3B0B72009B320024
:1063E00009334B800E4B8D714F7108711D70092E52
:1063F0000FD00D4E092237700C4F200000953D80C4
:10640000FFF77CFF69462000FFF726FC3A88084921
:1064100035702000FFF772FF012005B0F0BDC046C7
:106420009415002009020000951600209616002001
:1064300095150020F0B5CF7805000E0093B0022F1F
:1064400009D1C9882B48FFF7B5FF441EA041C4B24B
:10645000200013B0F0BD00F085FA310000F062FAC0
:10646000002803D0C417241AE40FF1E7012F0BD141
:10647000F2882149112A11D8D2B2002A0ED0280060
:10648000FFF73CFF0124E3E70400032FE0D1B378DA
:10649000002B05D1F2881949032AEDD90A78EEE7D5
:1064A000022B06D1F28816492800FFF751FF04009D
:1064B000CEE7012B02D1F2881249F5E7032BC7D1B1
:1064C000114B01A91868FFF7D6F9104B03A91868FA
:1064D000FFF7D1F90E4B05A91868FFF7CCF90D4B62
:1064E00007A91868FFF7C7F96B460533DC77F28810
:1064F00001A9D9E7E8110020DFB90000D2B90000F6
:10650000C8B90000D6B900000CA0800040A08000EF
:1065100044A0800048A0800037B5050048780C00F2
:106520000B2810D801F002FE061B0F310F484D75E5
:1065300051546E71097801AA002906D102231180F5
:106540002800FFF7B7FE01203EBD00231380324B29
:106550001B78012B00D1137002230021F0E78A7809
:106560000023012A09D16A4693802C4B1B78012B0A
:1065700000D11371022301AAEFE7274A1370284ABA
:1065800093699B0B9B039361DDE78C78012C07D10A
:10659000224B01AA1C70234B1B7813702300DCE7ED
:1065A00000208442D0D11C4B01301D4A18709369E1
:1065B0009B0B9B039361C7E728008978FFF718FCC2
:1065C000C1E72800FFF736FFBEE70123164AC4E7FC
:1065D0000B780020DB06B7D12800FFF7C3FC2A2088
:1065E0000221A278104BFF301A600D4A13681C5C20
:1065F00021434A241954FF34195D2938FF380143D7
:106600001955D4E70123094AA7E78A78074B1A608E
:10661000B5E7002098E7C0460A12002012120020B9
:10662000A0160020A4B90000981600209C16002097
:106630004B4BF7B51C780700002C00D083E0494E87
:1066400033689B8B1B070ED521002000FFF73AF91A
:10665000326810231100FF31887A03438B72424B5A
:106660001C600823938333689A8B52071FD504223A
:106670009A833E4A1378002B0AD01378013BDBB291
:1066800013701378002B03D101210F20FEF7FEFFBA
:10669000374A1378002B0AD01378013BDBB2137012
:1066A0001378002B03D101210E20FEF7EFFF336892
:1066B000FF331A7AD2061ED510221A725979303257
:1066C0000A435A7160232B4938000A781A423BD199
:1066D000FFF722FF3368FF33002838D080229979F2
:1066E00052420A439A711A7A520604D540221A720B
:1066F000597A0A435A72336800241D8C01239D4342
:10670000EDB20193E1B2002D1DD02B002341019A7F
:10671000134215D02300326808335B01D318DA79AD
:10672000D20702D4DB799B0707D5134BA200D058C0
:10673000002810D003681B689847019BA3409D4325
:106740000134092CDED1F7BDFFF774FBC2E720212D
:106750000A4A9171C7E73800FFF796FAEDE7C0469D
:1067600095160020A016002098160020091200207F
:1067700008120020D4130020EC110020FF5000412B
:1067800010B50248FFF754FF10BDC046E8110020C5
:10679000014B024A1A607047A016002000500041C9
:1067A0003F20704713B56B460268D97107335468B0
:1067B00019000122A04716BD10B502210069FFF79C
:1067C000E3FB10BD10B503210069FFF7F3FB10BD1B
:1067D00010B51300084A0400D279002A03D101231E
:1067E0000020636010BD0A0000690321FFF7DAFC96
:1067F0000028F4D0F6E7C046AC00002010B5054CE8
:1068000003002068421C04D11A681800526990479E
:10681000206010BDF8000020074A0300106810B582
:10682000411C03D001235B42136010BD0221186993
:10683000FFF7AAFCF9E7C046F800002010B503787E
:1068400042220233037002490248FFF757FD10BD90
:10685000B4000020E811002010B501780300427850
:106860000020A12908D1212A05D1174917481A3A31
:10687000FFF744FD012010BD2129FCD1202A13D1AE
:1068800011491248193AFFF7D9FB96220E4BD20054
:10689000196891420ED1DA7901231A420AD1FA20FD
:1068A000FEF7A8FF0020E6E7222A06D19A78064BD9
:1068B000DA71EAE7FEF7A4FFF4E7232ADBD15A886E
:1068C000034B1A60D7E7C046AC000020E811002057
:1068D000A8000020FA220021054B92009A60054A88
:1068E00008321A60044A59601A6119767047C04626
:1068F000A4170020F4B90000E811002070B50E00C4
:1069000000254468002C0BD02368310020005B6810
:106910009847002802DBE4682D18F3E701256D4253
:10692000280070BD70B50D004468002C08D02368A5
:10693000290020009B689847002802D1E468F4E70A
:10694000200070BD70B50D004468002C08D023688D
:10695000290020001B689847002802D1E468F4E76A
:10696000200070BD064A0123116810B50C000548CF
:106970001C40194203D1044944600180136010BDDA
:10698000C0170020C41700200204000070B50400E6
:10699000012320CC00212A782000134380222B7071
:1069A000520004F03CFCAB78DB07FCD4AB789B07CF
:1069B000F9D46C6270BD00001F22144B70B51B68C7
:1069C000590B9C0C9B0111405B0F22401F2900D1E9
:1069D0001A391F2A00D1023A072B00D1043B1F2588
:1069E00000688E01048D0A492A4021403143018507
:1069F000018D14000A00AA4322430285028D190367
:106A0000044B13400B43038570BDC04624608000D7
:106A10003FF8FFFFFF8FFFFF030010B508001900CC
:106A200004F0A6FB10BD0000D0B5254A4B0086B08F
:106A30005B08934222DD234A934209DD02000B00EA
:106A400003F092FE02000B001000190006B0D0BD4A
:106A500002AA00F087F903231840049A059B012835
:106A600013D0022822D0002819D0029803990124BB
:106A7000009401F021FA02000B00E5E70022002358
:106A800000F0A0FC02000B00DEE7009002980399E2
:106A900001F012FA80231B060200CB18D4E70298FB
:106AA000039900F08FFC02000B00CDE702980399D8
:106AB00000F088FC80231B060200CB18C4E7C04608
:106AC000FB21E93FFFFFEF7F434AF8B54746904679
:106AD0004B005B0D9844CE46424680B505000C0045
:106AE0000E000700132A25DC002A4CDB3B4B134128
:106AF00099460B40034317D0394A3A4B28002100EE
:106B000002F056FC0022002301F0C4FC002809D04A
:106B1000002C04DA8026434676031E4136194B4684
:106B200000279E433D003400280021000CBC904605
:106B30009946F8BD332A0CDD8023DB009845F3D15C
:106B400002000B002800210002F032FC05000C00BE
:106B5000EAE7254A9446012263445242DA409146CC
:106B60000242E1D01E4A1F4B2800210002F020FC07
:106B70000022002301F08EFC0028D3D0002C1ADB69
:106B80004B469F43CEE7164A164B2800210002F0E1
:106B90000FFC0022002301F07DFC0028C2D0002C55
:106BA00002DB00270026BDE76400640800272543B8
:106BB000B8D00E4EB6E74346142B09D03422D21A71
:106BC000012393405D19BD4204D22F00661CD7E714
:106BD000661CD5E72F00D3E701FCFFFFFFFF0F0086
:106BE0009C7500883CE4377EEDFBFFFF0000F0BFA2
:106BF000F0B5CE46474680B58DB004000D0000F0DC
:106C0000B1FA2B4B06001B780F005BB2994601339B
:106C100010D022002B002000290004F037F9804614
:106C2000002807D1002200232000290001F01EFCCB
:106C3000002806D1300039000DB00CBC90469946B2
:106C4000F0BD012302931B4B069407950393434623
:106C50000A934B4604940595002B15D0002300227F
:106C60001900100002F00EFF4B4608900991022B0C
:106C70000ED104F08BFA212303600A9B0193002BB1
:106C80000FD1089E099FD5E700230024089309949B
:106C900002A801F0CDF90028EBD00A9B0193002B4C
:106CA000EFD004F073FA0A9B01930360E9E7C04652
:106CB000FC00002018BA0000F0B500278DB0041CBD
:106CC00000F028FB254B051CDF577B1C0BD0211C3B
:106CD000201C02F0B5FA061E05D10021201C01F08F
:106CE000FFFB002802D1281C0DB0F0BD0123029348
:106CF0001B4B201C03930A9604F04CF9002200233E
:106D00000690079104900591002F15D010001900EE
:106D100002F0B8FE08900991022F0FD104F036FA64
:106D2000212303600A9B0193002B10D10898099935
:106D300004F078F9051CD6E70892099302A801F03F
:106D400077F90028EAD00A9B0193002BEED004F0DB
:106D50001DFA0A9B01930360E8E7C046FC0000208F
:106D600020BA0000F0B54E465746DE464546E0B52F
:106D7000DB4B4E00170089468FB076089E4200DC40
:106D800084E0D84B9E4228DCD74A002900DC89E108
:106D9000D64B03F0E9FCD54B04000D009E4200D118
:106DA0008AE0D34AD34B03F0DFFC02000B00200043
:106DB0003A607B60290003F0D7FCCE4BCC4A03F04D
:106DC000D3FC01239846B860F96040460FB03CBC44
:106DD00090469946A246AB46F0BDC74B9E4200DCAA
:106DE00086E0C64B9E425CDCC5493215884690441D
:106DF00043461B05F51A2900040004F065F804F069
:106E000099F802000B00200029000892099303F072
:106E1000ABFC0022BB4B03F03BFA0D00040004F076
:106E200053F8060004F086F802000B002000290049
:106E30000A920B9303F098FC0022B24B03F028FA5D
:106E4000002200230C900D9101F00AFB002800D1D4
:106E5000FCE033005E1EB3410133AB4A39000192BE
:106E6000022208A80092424600F0C4FB4B4680462E
:106E7000002BAADA8022120694467B6863447B606A
:106E8000FB686344FB60434298469EE702000B00A8
:106E90003A607B6000230022BA60FB6000239846C2
:106EA00093E70B00020003F05FFC0023B860F96079
:106EB00098463860796088E7D3228E4B520503F0FC
:106EC00053FC924A924B04000D0003F04DFC02006B
:106ED0000B0020003A607B60290003F045FC8C4BDE
:106EE0008A4A03F041FC0123B860F96098466CE7D8
:106EF00001F09AF8874A884B04000D0003F0C8F9A6
:106F00000022864B02F054FA03F0DEFF804604F0C4
:106F100011F8754A754B0490059103F0B9F9020018
:106F20000B002000290003F01FFC724B029003911C
:106F3000049805996E4A03F0ABF9434604000D002E
:106F40001F2B36DC764A013B9B009B58B34230D066
:106F50000298039922002B0003F006FC82468B4620
:106F600052465B463A607B600298039952465B4604
:106F700003F0FAFB22002B0003F0F6FB03000800ED
:106F80001A0019000300BA60FB604B46002B00DBBF
:106F90001BE7802380241B069C4643465546240657
:106FA0005C4460445B4298463D607C60B960F86038
:106FB0000BE72B0002980399220003F0D5FB4B004E
:106FC00036155B0D82468B46F31A102BC8DD0498EC
:106FD0000599D322474B520503F05AF904000D00DE
:106FE00002000B000298039903F0BEFB02000B00A5
:106FF000029803990692079303F0B6FB22002B0038
:1070000003F0B2FB04000D00049805993F4A404B81
:1070100003F03EF922002B0003F0A6FB0B00020058
:1070200004000D000698079903F09EFB4B005B0DD2
:1070300082468B46F61A312E0ADC02000B003A60BB
:107040007B60069A079B029203938DE7032304E774
:10705000B822049805992E4B920503F019F9040003
:107060000D0002000B000698079903F07DFB02005B
:107070000B00069807990292039303F075FB220018
:107080002B0003F071FB04000D0004980599254ABC
:10709000254B03F0FDF822002B0003F065FB0400F4
:1070A0000D0055E7114B02F083F9104B04000D0061
:1070B0009E423BD00E4A0F4B02F07AF902000B00C1
:1070C00020003A607B60290003F04EFB084A094B20
:1070D00002F06EF901235B429846B860F96074E6ED
:1070E000FB21E93F7BD9024000004054FB21F93FDE
:1070F0003163621A61B4D03DFB213941FFFFEF7F5C
:10710000EAFBFFFF00007041A8BA00007370032E75
:107110008A19A33B83C8C96D305FE43F0000E03F9C
:1071200028BA0000C14920259A837B39D3220A4B13
:10713000520502F03DF9094A094B04000D0002F026
:1071400037F902000B0020003A607B60290003F051
:107150000BFB024A024BBBE761B4D03D7370032EB8
:107160008A19A33BF8B5684BCE4647460500020096
:1071700018000C0080B50840984200D1A0E000291A
:1071800069DD081500D177E0604B0903C41880233E
:10719000090B5B030B43C10703D4D00F5B00C3187B
:1071A0005200611088465B00D10F5B1800218020DF
:1071B00016248C46520080030D189D4202DC2918CB
:1071C0005B1B8444D50F5B00013CEB185200400868
:1071D000002CF1D10020814680202026000609E005
:1071E0008B425ED0D50F5B00013E5B195200400818
:1071F000002E16D005198B42F2DD0F002C18002D41
:107200004BDB5B1AAA42894149425B1A521BD50FDC
:107210005B00013E814439005B1952004008002E9A
:10722000E8D1134345D14B465E0863465910384BAD
:10723000994663464944DB0702D580231B061E435B
:1072400043461805431835001C00280021000CBCDB
:1072500090469946F8BD4B005B082B43F5D00020C3
:1072600000293AD1D30A190015385205002BF9D05C
:1072700080246403234241D1802300245B0349001E
:10728000250001341942FAD020260B001100A2403B
:10729000361BF140401B194376E7E743FF0FCF1938
:1072A000AFE795429ED82C18002DF6DB1F00002377
:1072B000ACE74B4601331DD04E4601367608B4E7A5
:1072C0002A000B002800210002F0E2FF2A00230020
:1072D00002F06EF805000C00B7E72A000B0028004A
:1072E000210003F041FA02000B0002F0CBFB050085
:1072F0000C00AAE701239946CC4496E7012511002A
:1073000020266D42C5E7C0460000F07F01FCFFFF6C
:107310000000E03FFF21420070B50300041C52084A
:10732000C9058A423AD2002A37D000283FDBC5156A
:1073300001420BD1802109040A00024001423DD1E3
:107340005B00100001320B42FAD02D1A5B025A0A80
:10735000802328001B047F381343EA0725D58022A9
:1073600019210026002540105B005204AC189C42F5
:1073700002DCA5181B1BB61801395B005208002956
:10738000F4D1002B02D0012301369E43FC239B0540
:107390009C4676106644C005801970BD011C01F042
:1073A0006DFC211C01F004F9F7E75B00D7E7011C35
:1073B00001F07EFD011C01F097FAEEE7012040424A
:1073C0002D1AC3E7F0B54746CE4680B587B0009288
:1073D0000193F9234F00814688467F089B059F4211
:1073E00063DA03F071FD002800D1DAE04A46434633
:1073F0004846414602F04CFF04000D006A4A6B4BC0
:1074000002F046FF6A4A6B4B01F0D2FF22002B00CC
:1074100002F03EFF684A694B03F0A6F922002B00F8
:1074200002F036FF664A674B01F0C2FF22002B00D4
:1074300002F02EFF644A654B03F096F922002B0000
:1074400002F026FF624A634B01F0B2FF22002B00DC
:1074500002F01EFF029003910022200029005E4BE3
:1074600002F016FF029A039B06000F00200029007D
:1074700002F00EFF009A019B04000D0048464146B1
:1074800002F006FF02000B002000290003F06CF957
:1074900002000B003000390003F066F902000B0017
:1074A00000204E4903F060F970E002000B0002F08A
:1074B000EFFE04000D003C4A3C4B02F0E9FE3C4A62
:1074C0003C4B01F075FF22002B0002F0E1FE3A4A2E
:1074D0003A4B03F049F922002B0002F0D9FE384A5A
:1074E000384B01F065FF22002B0002F0D1FE364A36
:1074F000364B03F039F922002B0002F0C9FE344A62
:10750000344B01F055FF2B00220002F0C1FE344B3A
:10751000029003919F429FDD324B00229F423ADC52
:10752000314900207B182D4916001F0003F01CF97B
:1075300004900591002220002900274B02F0A8FEAC
:1075400032003B0003F010F9029A039B06000F0083
:107550002000290002F09CFE009A019B04000D000F
:107560004846414602F094FE02000B00200029002C
:1075700003F0FAF802000B003000390003F0F4F8D1
:1075800002000B000498059903F0EEF807B00CBC5C
:1075900090469946F0BD154B002604920593144F72
:1075A000C8E700200D49F1E7D43888BEE9FAA8BD44
:1075B000C4B1B4BD9EEE213EAD529C804F7E923E42
:1075C0009015CB19A001FA3E7751C1166CC1563FF8
:1075D0004C5555555555A53F0000E03F0000F03F84
:1075E0003233D33F0000E93F0000E0FF0000E73FF7
:1075F0000000D23FF0B5DE4657464E464546E0B560
:10760000DD4CA5440D9119001400A49A0A93DB4B9C
:107610009200D2580B00013B04932300069008927D
:10762000143300DAA1E31821E01E00F01DFE030070
:1076300001339A009B1A0590DB00E318059A079323
:10764000049BD41A089AD61814D40136A59F22ADEB
:10765000361907E0A300F85803F06CFC013403C5A9
:10766000B44207D0002CF5DA00200021013403C514
:10767000B442F7D1089B002B01DA00F0FDFB0A9918
:1076800022AA8C469346089A72AB62440392069AE9
:10769000994690460093049B9A46DB009B4408332E
:1076A0009844049B00240025002B13DB5F46002434
:1076B0000025069E3A687B6803CE02F0E9FD0200D1
:1076C0000B002000290001F073FE083F04000D00AC
:1076D0004645EFD14B4630C3994608239C46073BAD
:1076E000E3449C46039BE2449A45DAD10EA8042267
:1076F000844652426244944608998B009C446246F8
:107700008446083B63440B93059B0C92A59A980012
:1077100094460300634405930A9B8846DA00069B5F
:10772000083B9B469344DA4643460099DA00944668
:107730000B0063441E685F6843460992002B32DDEC
:1077400089468F4B4344DB0099440EAB9B46002295
:107750008C4B3000390002F09BFD03F0B5FB03F0C9
:10776000E9FB0022884B04000D0002F091FD0200AD
:107770000B003000390002F0F7FF03F0A5FB5B4679
:1077800001C39B464B4620001A685B68290001F044
:107790000FFE0822524294464B46009A06000F0004
:1077A000E1449A42D3D1079B30001A0039009B462E
:1077B00000F040FCFF2300229B0504000D0002F0B6
:1077C00067FDFFF781F90022704B02F061FD0200B6
:1077D0000B002000290002F0C7FF04000D0003F099
:1077E00073FB814603F0A6FB02000B00200029007A
:1077F00002F0BAFF5C4606000F00002C00DC86E0B9
:107800004346591E89000EAB5B5818201A00001B16
:107810000241914482409D1A0EAB5D5017231B1B01
:107820001D41002D00DD7FE00022002330003900E3
:1078300000F016FE002800D1EAE04346591E089BDE
:107840008B420FDC0EAA94460022514B0C98434405
:107850009B0063441C68043B22438342FAD1002A04
:1078600000D024E1089B0EAA013B9B00D1580122C5
:107870000B9B002900D015E11968043B0132002957
:10788000FAD0012343449B461300434403930A9BCD
:1078900022AA43449046009ADB0094469844099BF0
:1078A000634499465B46059A9B00D05803F042FB1F
:1078B000434618605960049B002B25DB4746002493
:1078C0000025069E02E008363868796832687368D9
:1078D00002F0DEFC02000B002000290001F068FD30
:1078E000083F04000D005645EDD14B469C60DD601D
:1078F00001239C460733E3449C46039BE044E14458
:107900009B45CFDD98460FE700240025EDE7079B58
:10791000002B00D0BDE04346013B9B000EAAD5588A
:10792000ED15002D00DC7FE701239C464346E14432
:10793000002B00DC2FE20E9C002C00D09FE0434681
:10794000012B2FD0012241460FAB1C68002C00D127
:1079500098E08846531C802149040C1B92000EA914
:107960008C5098451DDD9B008C46CA5841468900C5
:1079700008486344614410E094FDFFFFF0BB000041
:10798000FFFFFF1F0000703E00007041000020401C
:10799000FFFFFF3FFFFFFF001A68821A04C38B42FC
:1079A000FAD10124079B002B0EDD012B00D1D1E180
:1079B000022B09D143465A1E92000EAB9B580EA9CA
:1079C00003939B029B0A8B50022D00D02CE73200C0
:1079D0003B000020934902F0C7FE06000F00002C78
:1079E00000D121E7079A00208E4900F023FB020016
:1079F0000B003000390002F0B7FE06000F00002235
:107A000000233000390000F02BFD002800D014E7DF
:107A10004B460693079B30005A423900049500F00C
:107A200009FB0022804B04000D0000F03DFD002802
:107A300000D1EFE17D4B00222000290002F028FC5C
:107A400003F042FA42460600970003F073FA002260
:107A5000754B02F01DFC02000B002000290002F013
:107A600083FE03F031FA0EAAD0514246079B013241
:107A700018330392079393000EAAD65032E00123E5
:107A8000002268E7013204338A4200D05DE788466D
:107A900088E70022664B00F007FD002800D069E16E
:107AA0000025C1E6012343449B460393EFE64B4682
:107AB0000A000693079B0391183B190007930EA831
:107AC0009300C3580495002B0CD18446594B434472
:107AD0009B0063441868043B013A18390028F9D028
