:1020000000400020715200005B5200005B52000053
:1020100000000000000000000000000000000000C0
:102020000000000000000000000000005B52000003
:1020300000000000000000005B520000C5520000DC
:102040005B5200005B5200005B5200005B520000DC
:102050005B5200005B5200005B5200005D520000CA
:102060005B5200003D4A00005B5200005B520000E2
:102070005B5200005B5200005B5200005B520000AC
:102080005B5200005B5200005B5200005B5200009C
:10209000000000005B5200005B5200005B52000039
:1020A0005B5200005B5200005B5200005B5200007C
:1020B0000000000010B5064C2378002B07D1054B1B
:1020C000002B02D0044800E000BF0123237010BDA4
:1020D000A80100200000000010BA0000044B10B559
:1020E000002B03D00349044800E000BF10BDC046E8
:1020F00000000000AC01002010BA000040697047E9
:10210000807C7047817470470020704701207047C1
:10211000C82040007047000010B5012104000020D5
:1021200003F07EFB1023E361014B236210BDC04628
:102130001000006010B5040002F082F9236800214D
:1021400020009B69984710BDF8B5036804005B6ADE
:102150000E0041699847E37C0500002B06D02368F8
:1021600020005F68626933006168B847236829000E
:1021700020009B6A9847F8BD10B50400024B03602D
:1021800002F038F9200010BD7CB1000010B5040049
:10219000FFF7F2FF200003F027F9200010BD000038
:1021A00010B50400024B0360FFF7E6FF200010BDEE
:1021B000B8B1000010B50400FFF7F2FF200003F0F3
:1021C00013F9200010BD000010B50400024B03609D
:1021D000FFF7E6FF200010BDF4B1000010B50400C9
:1021E000FFF7F2FF200003F0FFF8200010BD10B54C
:1021F000017802F07FF810BD10B5002003F05CFA02
:102200000C2003F033FA082003F09AFA0A2003F0B6
:102210009DF810BDF7B52B4E012533682A4C1F00E1
:102220002F402B420BD1200002F0E6F8274B200074
:10223000274A2849A7842360356004F0E7FC264D2F
:10224000452200232900200002F002F8234B244EEF
:102250001860244B02211B783370234B187803F04D
:10226000DFFAFFF7C9FF214A0023944680220020AD
:1022700000211F4FD20064461C1920606160DC19E8
:102280000833206061609342F5D10027194B01ACFF
:102290002380220045212800A77002F00BFB3000AC
:1022A000FFF7A5FFFA20400003F050F828002200B5
:1022B00045212780A77002F0FDFA3000FFF797FF55
:1022C000F7BDC046C8010020CC010020F4B10000D9
:1022D00000000020C92100006C02002054020020F0
:1022E0008C0D0020700000201000002058070020F6
:1022F000580300200080FFFFF0B5002487B002F0F3
:10230000F5FF494D2B68C01A5228F8D902F0EEFFAC
:102310002860082003F014FA80B208F069FC434DED
:1023200006000F0028686968414A424B07F00EFE1C
:10233000414A04900591414B3000390007F006FEF8
:1023400002000B000498059906F090FE02000B00B5
:102350003B492A606B6030006518390008F062F86C
:102360000022002328606960364D049205936119AC
:102370000A604B6080210834C9008C42BFD1002420
:10238000314E0123802230002D49029401940094A3
:1023900001F0E2F92A00802330002949009401F07D
:1023A00001FE2A0080233000254901F0AEF9244DBA
:1023B000002C0AD1049A059B21490A604B60013424
:1023C0000835402CF4D107B0F0BD204BE05C08F09C
:1023D0000FFC1F4A1F4B07F0B9FD02000B002868D5
:1023E000696808F01FF80022002306000F0006F0BD
:1023F0009DF8002801D100260027174A6300D05A13
:102400002E606F600028DAD008F0F2FB02000B00AB
:102410003000390007F094F90022104B07F096FDC8
:1024200028606960CBE7C046200200200800002039
:10243000AE47E17A14AEEF3F7B14AE47E17A843FBA
:102440005807002058030020F8010020D8B20000EF
:10245000333333333333034058B200000040654018
:10246000F7B502F03DFF012406000025012D23D819
:1024700002F036FF0700831B772BF7D90F48104E69
:1024800001AA002C0CD0002345211380937002F088
:1024900011FA3000FFF7ABFE01233E005C40E5E798
:1024A000FF2345211380947002F004FA01353000B7
:1024B000FFF79DFEEDB2EFE7F7BDC0466C020020CE
:1024C0008C0D0020F7B502F00BFF0124060000255B
:1024D000012D23D802F004FF0700831B772BF7D9C7
:1024E0000F48104E01AA002C0CD000234521138068
:1024F000937002F0DFF93000FFF779FE01233E0010
:102500005C40E5E7084B45211380947002F0D2F956
:1025100001353000FFF76BFEEDB2EFE7F7BDC046C7
:102520006C0200208C0D00200080FFFF074B10B5CF
:102530001A78002A04D101321A70FFF791FF10BDFA
:1025400000221A70FFF7BEFFF9E7C0463B030020E8
:1025500010B5044C05212078013005F0B7FF21703B
:1025600010BDC04672000020F8B5234B187803F068
:10257000B3F9C5B202F0B4FE204E04003278204B0D
:10258000AA4202D018603570F8BD1B68C31A322BFE
:10259000F9D91C4F3B78AB4226D01B4B3D70002D28
:1025A00010D101221A70194B1860184B1868FA23C1
:1025B000241A9B009C42E6D30022134B1A70FFF7AB
:1025C000B5FFE0E71A78002ADDD000221A70FA225F
:1025D0000E4B92001B68C31A9342D4D20C4B1B784B
:1025E000002BD0D1FFF7B4FF3B78002BCBD1064BAB
:1025F0001B78002BC7D0D8E7100000207100002006
:102600006402002011000020300200202C02002073
:102610003B030020F0B587B002F062FEFA21564A73
:1026200089001368C31A8B426ED3544B10601E6826
:10263000534B1C68002E00DC6EE0200006F0D0FC3E
:10264000051C300006F0CCFC011C281C05F0FCFF2A
:1026500008F024FB00224B4B07F078FC08F066FBE7
:102660004949051C05F09CFF00284FD0474D2868BC
:1026700008F014FB464A474B07F068FC0022464B23
:1026800006000F0005F052FF002801D00026424F3F
:102690003000390008F04AFB28600723E0170340A8
:1026A0001B19DB1004930F23184000190311059325
:1026B0003A4B3B4D3B4C01932B68049A93423EDDD1
:1026C000206808F0EBFA384A384B07F03FFC00224C
:1026D000314B06000F0005F029FF002801D000262D
:1026E0002D4F3000390008F021FB2060002308C581
:1026F000019B0434043301932D4B9D42DCD1002215
:102700001F4B1A601D4B1A6007B0F0BD2949281CE9
:1027100005F032FF0028C0D01C4D286808F0BEFA32
:10272000214A254B07F012FC194A244B06000F00E2
:1027300005F0E8FE0028ABD0154E204FA8E7059A1B
:102740009342D3DA206808F0A9FA1D4A1D4B07F01E
:10275000FDFB019B02900391186808F09FFA0600A8
:102760000F0002000B000298039905F0CBFE002831
:10277000B7D1029E039FB4E76802002054030020F3
:1027800024020020000059400000A04188000020E1
:102790009A9999999999F13F0000244030000020BE
:1027A0003402002050000020CDCCCCCCCCCCF03F6B
:1027B0005402002000002041CCCCEC3F9999B93F55
:1027C000666666666666EE3FF7B54521002002F054
:1027D00039FD0E4AC3B215780322C0B250430C49EA
:1027E0000C4C401899186A43C9B20191A518442BA2
:1027F0000BD8115D6F780170AE7801330199DBB2AF
:102800004770867003308B42F1D1F7BD3102002052
:102810006C02002012000020F7B5104B104A197806
:1028200003254800835C12185278694394460D4C86
:1028300066189C4510D32800727858430092B278ED
:102840000F5D0192084A0133875412180098DBB2D9
:10285000507001989070ECE7F7BDC046310200203F
:1028600078000020120000206C020020F7B5114B08
:10287000114A197803254800835C1218527869437D
:1028800094460E4C0433DBB266189C4510D32800E6
:10289000727858430092B2780F5D0192084A013372
:1028A000875412180098DBB2507001989070ECE7D2
:1028B000F7BDC04631020020780000201200002041
:1028C0006C0200200023F0B58DB00AAA93809371AA
:1028D00045210BAA974801F0EDFF9748FFF787FCC9
:1028E0000F22964B08921B78012B01D019230893D5
:1028F0000024FFF739FE02F0F3FC089A0990031B4D
:10290000934208D2012002F021FD8C4B1B78012B51
:10291000EFD90DB0F0BDFFF7EFFC894B894E1F00DA
:1029200004930023019305933378079373780293FC
:102930003F2B01DD3F230293079B029A934262DA09
:10294000002400250693069B029A93420EDC7E4AE1
:10295000DB009B1820001A685B68290006F086FBE4
:10296000069B040001330D000693ECE7029B079AD7
:10297000981A013008F03CF902000B0020002900F1
:1029800006F0DEFE0400B0780D0008F031F9020018
:102990000B002000290006F0D3FE6C4A0290039140
:1029A0001368013313606A4B186808F077F9002246
:1029B000684B07F0CBFA019B04009A00664B0D00B0
:1029C000D05808F06BF902000B002000290007F036
:1029D000BDFA02000B000298039905F0B1FD002832
:1029E00011D0564B019A19785C4B1A705C4A1368E7
:1029F000013313603B6801333B6000292FD1FFF79F
:102A0000E3FE01230593019B033601330193043751
:102A1000082B89D1494B1B78012B7BD1514B01935A
:102A200000230293019B1B780693019B5C783F2C4B
:102A300000DD3F24069BA34260DA1D00002600272C
:102A4000A5420FDC404AEB009B1830001A685B6817
:102A5000390006F00BFB013506000F00F0E7FFF729
:102A6000DBFECEE7069BE01A013008F0C1F8020059
:102A70000B003000390006F063FE019B04009878DB
:102A80000D0008F0B5F802000B002000290006F048
:102A900057FE2E4A060013680F00013313602C4BBB
:102AA000186808F0FBF800222F4B07F04FFA029B42
:102AB00004009A00284B0D00D05808F0EFF80200EF
:102AC0000B002000290007F041FA02000B00300043
:102AD000390005F035FD002810D0204B029A1A70FD
:102AE0001F4A136801331360049B049A1B68059303
:102AF00001331360FFF7BAFE01230593029B0133F4
:102B00000293019B03330193049B04330493029BC0
:102B1000082B87D10848FFF76AFB059B5022054820
:102B2000002B00D17822452101F015FDFFF772FD41
:102B3000099CEAE66C0200208C0D00207200002047
:102B40003402002028B2000058070020540300205F
:102B50008800002000004940500000203102002081
:102B60002402002040B200000040504070B5050033
:102B70000C001000002D07D0290005F0A7FC00294B
:102B800002D1002D08DD01340020002C03DB2000E1
:102B9000FF2C00DDFF2070BD013CF5E7F0B587B0EC
:102BA00002F0A4FB384B394A197803234B43D11860
:102BB0009A5C374B4C781B688F780090D61A9A42F3
:102BC00005D0FF203100800005F09AFB0600314B54
:102BD0001B68E51A9C4205D0FF202900800005F003
:102BE0008FFB05002C4B1B68FA1A01929F4205D0FF
:102BF000FF201100800005F083FB0190274A009B15
:102C000011685B1A264909688B4238D3009B254F0F
:102C1000254C13603B6821681A0030000093FFF7D1
:102C2000A5FF224E009A3168029020602800FFF72D
:102C30009DFF1F4D009A2968039030600198FFF7AF
:102C400095FF029B05AA1370039B9070537045215A
:102C50002860184801F02EFE1748FFF7C8FAFF2237
:102C60003B68920001333B60934208DB2268084BCB
:102C70001A603268074B1A602A68074B1A60FFF720
:102C800073FC07B0F0BDC0463102002012000020E6
:102C900044030020400300203C03002048030020A0
:102CA0002C0000205C020020500300206002002065
:102CB000280200206C0200208C0D002073B5002635
:102CC0006B4645219E809E71114801AA01F0F2FDDC
:102CD0001048FFF78CFA104C104D26702E60FF261E
:102CE000B6000F4B1B78022B11D1FFF757FF2B6853
:102CF000B34207DB002223782A600133DBB2072BC3
:102D000003D82370FFF730FCEBE72270FAE773BDBE
:102D10006C0200208C0D0020310200205C0200209B
:102D200072000020F7B500276B461C4D9F809F71F5
:102D30004521280001AA01F0BDFD194E3000FFF722
:102D400056FA184C27700C37174B1B78032B24D1DD
:102D500002F0C6FA154A164913680968C31A8B426D
:102D600018D310602078381A06F03AF9114905F0A6
:102D700035FE05F051FC0523C2B24521280001F0C3
:102D8000ACFD3000FFF733FA20780C21013005F05C
:102D90009DFB2170FFF7E8FBD6E7F7BD6C02002032
:102DA0008C0D00205B020020720000204C030020EC
:102DB000740000200000AA41F0B5354F85B03B7883
:102DC00003900291002B06D000230721314A3B706B
:102DD0001370314A117002F083FA304A3049136897
:102DE0000968C31A8B4251D32A4B1B780093072BD7
:102DF0004CD80325284B10601B780193019A294B6E
:102E00005200D45C009A5200D65C274B7543ED18F3
:102E1000009B244A5B00D3185B78B34215D203258C
:102E20006543214BED18019B5E00961901363378FE
:102E3000A34215D3442C13D828000322013402A93D
:102E400008F068F8E4B20335F1E7442EE7D828002B
:102E50000322013603A908F05DF8F6B20335D7E77F
:102E60001248FFF7C4F9802245210F4801F073FB97
:102E7000084B084A1B7808490133DBB213700A7803
:102E8000013A0A70072B01D901233B7005B0F0BD50
:102E90008C000020590200205A0200204C03002020
:102EA00074000020780000206C0200208C0D0020AF
:102EB000F7B5002601AC2200452126482680A670E1
:102EC00001F0F8FC2448FFF792F901238227234DF3
:102ED0002E70234E3370234B1B78042B39D1287866
:102EE00003280FD805F06EF90219252DFF23694636
:102EF000238000231C4AA3700A808B7000992068ED
:102F0000FFF75AFF3378002B04D003222B780133CC
:102F100013402B70FFF728FBDDE76A46134B138045
:102F200000239370012252422280A37021680098EE
:102F3000E6E76A460E4B1380002393702380FF332D
:102F4000F3E76B464B229F701A80942323803F3314
:102F5000EBE7F7BD6C0200208C0D0020580200202A
:102F60008C00002072000020FF450000FF8CFFFF56
:102F70000080FFFF10B5FFF7F7FA0A4B1878042816
:102F800006D805F01FF9030306090C00FFF79AFCA9
:102F900010BDFFF793FEFBE7FFF7C4FEF8E7FFF76E
:102FA00087FFF5E772000020F0B585B002910A991D
:102FB00003938B68019001338B60CB680133CB6046
:102FC0000B6901330B6100269446039B35003400E6
:102FD0003000019A029F664674784D782D062406CB
:102FE00001D16D40C046641900D3E44300D32406E8
:102FF000CE68240E74434D780E79751B4D702004F5
:10300000624600969446009E019A029F9760C046D1
:10301000C0460326013EFDD1400000D25760C046A5
:10302000C046C0460826013EFDD15760C046C04696
:103030000526013EFDD19760C046C0460326013EED
:10304000FDD1400000D25760C04666463478C04685
:10305000C0460726013EFDD15760C046C046052642
:10306000013EFDD19760C046C0460326013EFDD11A
:10307000400000D25760C0460D782D06240601D1CD
:103080006D40C046C0460626013EFDD15760C04691
:10309000C0460526013EFDD19760C046C0460326C6
:1030A000013EFDD1400000D25760C046641900D3F4
:1030B000E44300D324060726013EFDD15760C046F5
:1030C000C0460526013EFDD19760C046C046032696
:1030D000013EFDD1400000D25760C0468E68240EEC
:1030E0007443C0460726013EFDD15760C046C04626
:1030F0000526013EFDD19760C046C0460326013E2D
:10310000FDD1400000D25760C0460D78CE78751BC7
:103110000D70C0460626013EFDD15760C046C04630
:103120000526013EFDD19760C046C0460326013EFC
:10313000FDD1400000D25760C046C046C0460826B8
:10314000013EFDD15760C046C0460526013EFDD177
:103150009760C046C0460326013EFDD1400000D224
:103160005760C0462004C0460826013EFDD1576086
:10317000C046C0460526013EFDD19760C046C04608
:103180000326013EFDD1400000D25760C046C04634
:10319000C0460826013EFDD15760C046C046052600
:1031A000013EFDD19760C046C0460326013EFDD1D9
:1031B000400000D25760C0466646B478C046C0465C
:1031C0000726013EFDD15760C046C0460526013E98
:1031D000FDD19760C046C0460326013EFDD14000A8
:1031E00000D25760C0468D782D06240601D16D406F
:1031F000C046C0460626013EFDD15760C046C046C7
:103200000526013EFDD19760C046C0460326013E1B
:10321000FDD1400000D25760C046641900D3E4439A
:1032200000D324060726013EFDD15760C046C046A4
:103230000526013EFDD19760C046C0460326013EEB
:10324000FDD1400000D25760C0460E69240E744381
:10325000C0460726013EFDD15760C046C046052640
:10326000013EFDD19760C046C0460326013EFDD118
:10327000400000D25760C0468D784E79751B8D7026
:10328000C0460626013EFDD15760C046C046052611
:10329000013EFDD19760C046C0460326013EFDD1E8
:1032A000400000D25760C0468E79B444C046C04644
:1032B0000726013EFDD15760C046C0460526013EA7
:1032C000FDD19760C046C0460326013EFDD14000B7
:1032D00000D25760C0462004C0460826013EFDD1FA
:1032E0005760C046C0460526013EFDD19760C046E6
:1032F000C0460326013EFDD1400000D25760C046C3
:10330000C046C0460826013EFDD15760C046C046B3
:103310000526013EFDD19760C046C0460326013E0A
:10332000FDD1400000D25760C04666467478C04662
:10333000C0460726013EFDD15760C046C04605265F
:10334000013EFDD19760C046C0460326013EFDD137
:10335000400000D25760C0464D782D06240601D1AA
:103360006D40C046C0460626013EFDD15760C046AE
:10337000C0460526013EFDD19760C046C0460326E3
:10338000013EFDD1400000D25760C046641900D311
:10339000E44300D324060726013EFDD15760C04612
:1033A000C0460526013EFDD19760C046C0460326B3
:1033B000013EFDD1400000D25760C046CE68240EC9
:1033C0007443C0460726013EFDD15760C046C04643
:1033D0000526013EFDD19760C046C0460326013E4A
:1033E000FDD1400000D25760C0464D780E79751B64
:1033F0004D70C0460626013EFDD15760C046C0460E
:103400000526013EFDD19760C046C0460326013E19
:10341000FDD1400000D25760C046C046C0460826D5
:10342000013EFDD15760C046C0460526013EFDD194
:103430009760C046C0460326013EFDD1400000D241
:103440005760C0462004C0460826013EFDD15760A3
:10345000C046C046C0460326013EFDD10D4F009632
:103460006246BE6862B6013B72B6BF68BC46BE42E9
:1034700001D2094FF6196746F61B87273F01BE4266
:1034800005D8002B00D0BDE5039805B0F0BD0020A5
:10349000FBE7C04610E000E080BB000000B54368D9
:1034A000020089B00120002B12D0107E03A90590E4
:1034B000507E0690907E0790D0680390108A888096
:1034C000907C88710091126810210248FFF76CFD12
:1034D00009B000BD10000060F0B505000C008BB015
:1034E00001F004FFAB8CC31A9BB2312BF8D972B632
:1034F000236808AE0293A36927000893A38BE268B0
:10350000B380A37F02A9B3711223E3560592228AE6
:103510008B7463680A820393049363690800183705
:103520000793FFF7BBFF00281ED162B6C8239B009C
:10353000013BFDD172B62368E2680293A36902A938
:103540000893BB880800B380BB79B3711223E3569C
:103550000592228A8B7463680A82039304936369D9
:1035600001930793FFF79AFF62B601F0BFFEA884AC
:103570000BB0F0BD0721F8B51B4A060013780133E4
:103580000B401C00137001221440134200D0802411
:103590009A0701D5402214430422134201D020236C
:1035A0001C43350080271034E4B20C350F367F0001
:1035B000297B002904D0380004F0A2FE0130C1B2FA
:1035C0004B1C63431B12E970DAB2002B08D12B703D
:1035D000002901D00139E9700135AE42E8D1F8BDCA
:1035E000013A2A70F4E7C046C4010020F0B5040097
:1035F00015000E008DB01A000100684600F033FF80
:1036000007226946A77C02A807F084FC072202A9CA
:103610000AA804960595069507F07CFC012F0FD1AA
:1036200004A8FFF7A7FF6A4622210023521813704F
:103630000993236820001B6B04A998470DB0F0BDC7
:1036400000236A4607931384EDE7F0B517000500E1
:103650008FB01A000191010002A800F004FFFB17CF
:10366000FE185E40AB7C072202A904A8009307F075
:1036700051FC019B072204A90CA806930796089603
:1036800007F048FC009B06AC012B11D12000FFF78E
:1036900071FF0323A374002363619F4201DAFD33AA
:1036A000A3742B68210028001B6B98470FB0F0BD56
:1036B000002309932382ECE71FB500230022084C66
:1036C0000293084B20000092019307498023074A88
:1036D00000F0E2FA2000064A064903F097FA1FBDFF
:1036E000F80100200070C740580700205803002050
:1036F00000000020F936000010B5040080680028A2
:1037000001D001F075FE200010BDF0B55C080B0083
:103710000D0085B0E40008330192E418019BC0CB92
:1037200001932A686B681000190006F00FFC320044
:10373000029003913B003000390006F007FC0200C4
:103740000B000298039905F091FC03F04BFB03C5B5
:10375000A542E3D105B0F0BDF0B58FB0059316AB2F
:103760001B780D00079353080693159B1400002B3C
:1037700030D0059B0A2B2DD1069B013CDF00E400D5
:10378000CB19159E0C190093009BAB4200D177E238
:103790002868696832687368149F002F0FD106F09B
:1037A000D5FB28606960326873682068616806F03C
:1037B000CDFB206061600835083C0836E4E705F081
:1037C000BFFF28606960326873682068616805F02F
:1037D000B7FFEEE7200007F03BFAE44B002206F0CB
:1037E00021FE079B02900391002B07D0059BDA0076
:1037F000DF4B9B181A685B680C920D93013CE40048
:103800002B190193002300950493049B069A93427D
:1038100000D135E2180007F01BFA029A039B06005C
:103820000F0005F08DFF059B0400581E0D000828B1
:1038300000D914E204F0D0FC09001B0064008B00E6
:10384000CF00FD0039017501FC01CA4ACA4B2000B6
:1038500006F07CFB03F0E2F9C84AC94B06F076FBA0
:1038600002000B00C748C84906F0DCFD10E0C14A61
:10387000C14B200006F06AFB03F0D0F902000B00F8
:103880000020BA4906F0CEFDBE4ABF4B06F05EFBF3
:1038900004000D00079B002B07D00C9A0D9B200005
:1038A000290006F053FB04000D00159B002B05D0EA
:1038B000049B159ADB00D3181C605D60009B2200FE
:1038C00018685968149B002B00D0CBE12B0006F040
:1038D0003DFB009B22001860596001992B0008688D
:1038E000496806F033FB019B18605960049B013363
:1038F0000493009B08330093019B083B019384E7EA
:10390000002202980399A14B06F020FB02000B0055
:103910003000390006F086FD0022002304000E006E
:103920000D0004F003FE002802D180231B06F518C9
:1039300022002B002000290005F098FB029A039B2F
:1039400005F0FEFE02000B00002088498CE7894A42
:10395000894B200006F0FAFA03F060F98C4A8D4B8F
:1039600006000F002000290006F0F0FA03F056F9D7
:10397000894A08900991894B2000290006F0E6FA4F
:1039800003F04CF9864A0A900B91864B30003900BF
:1039900006F0DCFA02000B008348844906F042FD81
:1039A000834A04000D0008980999824B06F0CEFA6C
:1039B00002000B002000290005F058FB04000D0058
:1039C0007D4A7E4B0A980B9906F0C0FA02000B0064
:1039D0002000290048E7674A674B200006F0B6FA46
:1039E00003F01CF96A4A6B4B06000F002000290007
:1039F00006F0ACFA03F012F9714A08900991714B84
:103A00003000390006F0A2FA02000B006E486F4940
:103A100006F008FD04000D006D4A6E4B08980999E8
:103A200006F094FA02000B002000290005F01EFBAE
:103A30002EE7504A504B200006F088FA03F0EEF8CB
:103A4000534A544B06000F002000290006F07EFA6E
:103A500003F0E4F8504A08900991504B20002900E7
:103A600006F074FA03F0DAF85B4A0A900B915B4BAC
:103A70003000390006F06AFA02000B005848594934
:103A800006F0D0FC584A04000D0008980999574BDD
:103A900006F05CFA02000B002000290005F0E6FAAF
:103AA000534A04000D00534B8CE7324A324B20003E
:103AB00006F04CFA03F0B2F8354A364B06000F0018
:103AC0002000290006F042FA03F0A8F8324A0890D4
:103AD0000991324B2000290006F038FA03F09EF8D5
:103AE000454A0A900B91454B3000390006F02EFAFA
:103AF00002000B004248434906F094FC424A04008D
:103B00000D0008980999414B06F020FA02000B00BD
:103B10002000290005F0AAFA3D4A04000D003D4BA3
:103B200050E7144A144B200006F010FA03F076F820
:103B3000174A184B06000F002000290006F006FA6D
:103B400003F06CF8344A08900991344B3000390086
:103B500006F0FCF902000B003148324906F062FC25
:103B6000314A04000D00314B58E7C0460000F03FD9
:103B700018B3000068A17454FB211940713D0AD7A5
:103B8000A370DD3F48E17A14AE47E13F0000E03F1B
:103B90002CBB1E54FB2129400E79577F7CD9324023
:103BA000B9E00CFE7E31DF3F2AA73D25E7C4D63FB2
:103BB000ABB184B53176C23FDEE8633E20D0893FA9
:103BC000B9FC87F4DBD7DF3FBCE82B483316DB3F7B
:103BD0002B6A300DC347B43F3B191C25AF4EDF3F66
:103BE00004B97A04ED44D73FA13193A8177CC13FB3
:103BF000189EF24300CB853F8EAF3DB32440DF3F9C
:103C0000F6285C8FC2F5D63FBD18CA897615C23F2B
:103C1000B2632310AFEB873FBD7ED29A30ABE03F5B
:103C20008984A570F3FCD13F52CCE6165F59C93F99
:103C3000002202980399134B06F088F904000D0046
:103C400002000B003000390006F0ECFB22002B00D4
:103C500005F076FD02000B0006F078F972E600240C
:103C6000094D17E62B0005F06BFD009B2200186044
:103C7000596001992B000868496805F061FD32E63A
:103C80000FB0F0BD0000E03F0000F03F0020490809
:103C900001D00130FBE77047F8B51D0006AB04000A
:103CA0000E0003CB1F7800232061616123806360D5
:103CB000A360E560A261E6619F4208D080239B0576
:103CC0009D420BD26808C00001F08AFBA060290069
:103CD0002000FFF7DBFF60602000F8BD01204042BC
:103CE000F2E7F0B5166857680C684D680E604F60D3
:103CF00014605560F0BD0000F0B5002506002C00F2
:103D00009BB006935B08049105920093069B013BD0
:103D1000AB4221D9AC4216D9EB000193049BE700DA
:103D2000E900DA1959183000FFF7DBFF219B012B5E
:103D300009D10598059B8446DA19EB006344190004
:103D40003000FFF7CEFF009B9C4202D3E41A5B08D1
:103D5000FAE7E4180135D9E700230C930133019306
:103D600000231493079300238B4C089309940C9B16
:103D7000209A934200D1ECE0019B00245B00159354
:103D8000019B0026DB000F93019B844F1B010E93C8
:103D900000230293039400230093009B019A934213
:103DA00000D1ABE0DC00049B1D19059B1C190F9B87
:103DB0000A93009B0D930D9B069A93426BD20A9A2D
:103DC000049B9446634416931A685B68109211939F
:103DD00010981199059B634417931A685B681292B7
:103DE000139332003B0006F0B1F8029A039B18903F
:103DF00019911298139906F0A9F802000B0018986F
:103E0000199906F00FFB32003B0018901991129897
:103E1000139906F09BF8029A039B12901391109845
:103E2000119906F093F802000B001298139905F00F
:103E30001DF9189A199B109011912868696806F06D
:103E4000F1FA169B18605960109A119B20686168FE
:103E500006F0E8FA179B18605960189A199B2868B1
:103E6000696805F003F9109A119B28606960206861
:103E7000616805F0FBF8159A0D9B94460E9A634411
:103E800094460D930E9B20606160ED18E4180A9B28
:103E900063440A938FE73200089809993B0006F0C3
:103EA00055F8029A039B04000D001498079906F038
:103EB0004DF802000B002000290006F0B3FA029A28
:103EC000039B0A900B910898099906F03FF80400AB
:103ED0000D0032003B001498079906F037F82B00CC
:103EE000220005F0C3F80A9E0B9F009B02900391ED
:103EF000013300930F9B08330F934EE7002208987D
:103F00000999274B06F022F802000B0004000D006F
:103F10000020234906F086FA02F064FF204B0022BD
:103F2000149007912000290005F0A0F802F05AFF34
:103F3000219B08900991002B05D1802212069446FE
:103F4000079B634407930C9B01330C93159B0193D0
:103F50000DE7219B012B1CD1069B049CDE00A319BD
:103F6000059D0093009B9C4213D0069806F070FEBE
:103F700002000B0006000F002068616805F0E0FBFE
:103F800003C43200286869683B0005F0D9FB03C50B
:103F9000E8E71BB0F0BDC0460000F0BF0000F03FF6
:103FA0000000E03FF7B50E0019001D0017000400E7
:103FB000FFF76CFE089B3A003100019300902B0044
:103FC0002000FFF799FEF7BD00207047F8B5050007
:103FD0000E0017000024BC4208D02B682800315D79
:103FE0001B689847002801D00134F4E72000F8BD91
:103FF00070470300FC33196ADA69914203D01B6AE7
:10400000C018007E704701204042FBE70300FC33EC
:10401000D8691B6AC01A01D50130FF307047000013
:10402000F7B50193FA238027002504009B008360E5
:10403000114B7F0008330E00456029000092036099
:104040003A00183006F06FFF23002000FC332130C7
:10405000DD613A001D622900FF3006F064FF87230E
:104060009B00E3185D609D60009B20002375019B11
:104070002661A5756375FEBD70B300000200FC32B9
:10408000536810B501339468DBB29C4202D0546887
:104090000155536010BD10B50300827D002082429F
:1040A0000ED0872292009C186268A4680132D2B2B6
:1040B000A24205D02133FF331800FFF7DFFF0120B4
:1040C00010BD0300FC3399685A68914206D09A6883
:1040D000805C9A680132D2B29A60704701204042F7
:1040E000FBE710B51830FFF7ECFF10BD70B504000A
:1040F000006900F09CFD002814D0206900F0A5FDA7
:10410000002810D0206900F063FD0321206900F031
:1041100069FD8C239B00E558002D39D10023FC3428
:10412000E361236270BD206900F099FD002809D089
:10413000206900F08FFD002804D0206900F094FD74
:104140000028DFD0206900F08AFD002826D12069F0
:1041500000F076FD0028E5D0206900F085FD0028FC
:1041600037D087239B00E218536892689B1A01D5C9
:104170000133FF33FF21002B05D020002130FF3019
:10418000FFF79FFFC1B2206900F042FDA075C9E7AB
:10419000236820001B699847A847BFE7206900F003
:1041A00017FD2069032100F01DFD206900F05CFD72
:1041B0000028B7D0872300229B00E3185A609A603A
:1041C0000123A3758B239B00E3589342AAD0984701
:1041D000A8E72200FC32D369126A0133DBB22069FE
:1041E000934206D100F0EBFC0321206900F0FAFCB9
:1041F00098E700F03EFD010020001830FFF73EFF79
:10420000206900F0E5FCEFE710B50248FFF76EFF0C
:1042100010BDC046580B002010B5022300220249F1
:104220000248FFF7FDFE10BD48120020580B002089
:1042300010B500F0EBF900F0FFFA10BDFF230122EA
:104240000370002352424380C36082604360704722
:10425000F7B5040015001E0017000191002B01DCCA
:1042600016000027236820001B6998470321794323
:10427000019B2000591823686160DB6A66619847DA
:10428000011E08D0084804F03BF8084E73688342CA
:1042900000D20300736000F0B9F9EA1B210000F0BE
:1042A000E8FA2000FEBDC04640420F008C0D002001
:1042B000F8B50E4C050023685A1C22608B4214DBB3
:1042C00001F00EF80700FA20094E236832688000DA
:1042D0005843B91A974200D1012103F087FF002308
:1042E0006880236000F0FCFF3060F8BDA80E00205D
:1042F000AC0E0020F7B50400009100F087F900F043
:1043000061FA6368324D002B06D000F0EFFF2B6896
:10431000C01A63689842F4D300F0E8FFE3682860AD
:10432000002B03D0A168009898470090294F2A4E8F
:104330003D68002D1AD0294BB34217D0EB7C002BDF
:1043400012D02B6828005A6ADB6901929847019BBA
:1043500001002800984730606388632B01D8002350
:10436000AB74AD680436E4E73360F5E740263D689A
:10437000002D0DD0EB7C002B06D02B6828005F6849
:104380006A69009B6968B847013EAD68002EEFD1AD
:104390000026104B1D68002D0ED0402E0CD0EB7C5B
:1043A000002B06D02A680C49B3002800926AC9582D
:1043B0009047AD680136EEE719212000FFF778FF3E
:1043C000FFF736FF00F022F900F019FAF7BDC046FA
:1043D0009C0E0020A00E00209C0D00209C0E0020B2
:1043E00010B50248FFF72AFF10BDC0468C0D002013
:1043F00001207047704700000C4B01220833036016
:104400000023436083604361094B5242C260836171
:10441000084A094B02611A68002A00D11860074B4C
:104420001A68002A00D090601860704794B30000AA
:1044300070170300FFFF0101A00E0020A40E002052
:10444000030040680A0010B500280BD05B69002902
:1044500000DA1A009A4200DD1A0003214A430021C3
:1044600006F061FD10BDF0B50D000F0087B00192A0
:104470000C370F3506002A003900019800F02AF8A1
:10448000020405AB120E18705A70000204AC1B88AF
:10449000000E2100A07003223000238006F03AFDB8
:1044A0002A003900FF2000F015F803041B0E2070CD
:1044B00063702388000202AA000EA07003A99380F3
:1044C00090710322F01C06F025FD3000019BB371B2
:1044D00007B0F0BD37B500236C462380A370984227
:1044E0000FD0CC5C002C09D0D55C002D06D0013556
:1044F00001346C436D464443240CEC540133032BCC
:10450000EFD16B461A8899781000FF23120A1840E1
:1045100012020B401B04104318433EBD03780131C7
:104520004B431B12037043784B431B124370837839
:10453000594309128170704770B5032516000400B5
:104540004D434519AC4205D020003100FFF7E6FF8E
:104550000334F7E770BDD24310B5D2B2FFF7ECFFDA
:1045600010BD70B5051E09D0C400200006F0BEFCC9
:10457000051E03D02200002106F0D5FC280070BDE6
:10458000F7B5002704000D000192076041608160CB
:10459000B9420BD00800FFF7E4FF2060FA00019B4E
:1045A0008218013742CB42C2BD42F7D12000FEBD86
:1045B000F7B5104F01263B680F4D1C0034403342C5
:1045C00015D1802221000D482C7006F0ACFC2B0088
:1045D00008336A4621000A48DC6700940194FFF71B
:1045E000CFFF2800074A08493E6002F00FFB280071
:1045F000FEBDC046B00E0020B40E0020B80E002054
:104600003C0F0020000000206F46000010B5FFF7AF
:10461000CFFF10BD0322031DDB6F02409200DB00C1
:104620009B18C0187047037810B5002B05D0883050
:1046300083680068DA00801810BD0430FFF7EAFFD5
:10464000FAE70430C36F002B02D0013BC367F9E7E0
:1046500070470300883310B504001868002801D0A3
:1046600006F04EFC201DFFF7ECFF200010BD10B53A
:104670000400FFF7EEFF200010BD30B5041DE26F0F
:104680000F2A09D803230340D5009B005B19C018EB
:10469000013228C928C0E26730BD4268F8B505007C
:1046A0000C008A421BD2032353435B08994200D279
:1046B0001C002000FFF755FF00220600AB682868A9
:1046C000934206D9D300F118C31881CB81C10132BE
:1046D000F4E7002801D006F013FC2E606C60F8BDF2
:1046E000436810B58B4201D2FFF7D7FF10BD70B5FC
:1046F000040083680D00591CFFF7CFFFA2686368B0
:104700009A4206D22168D300CB18013203CD03C3ED
:10471000A26070BDF0B50025040087B0061D8022A0
:10472000019105702900300006F0FDFB27002300F1
:1047300088370833DD672900380004AA04950595F9
:10474000FFF71EFF019B1B780293AB421DD001991E
:1047500088318F4214D00E6889683800C9007318F8
:104760000193230090331D60C910FFF7B9FF019B2F
:10477000B34205D031003800FFF7B9FF0836F6E73D
:1047800001232000237007B0F0BD019B1D1DAE4228
:1047900016D00833DB6F30000393FFF752FF03217D
:1047A0000D40019B0135AD00029F5D19039BBB428B
:1047B00006D029003000FFF760FF01370835F5E724
:1047C0000023DEE730B5A7B001006846FFF7A2FF7F
:1047D0006B461B7801AC002B00D0229C6846FFF78B
:1047E00022FF0500A54205D02068083403689B68B5
:1047F0009847F7E76846FFF72CFF27B030BD30B584
:10480000A7B001006846FFF785FF6B461B7801AC37
:10481000002B00D0229C6846FFF705FF0500A5424B
:1048200005D0206808340368DB689847F7E76846D6
:10483000FFF70FFF27B030BD30B5A7B001006846C5
:10484000FFF768FF6B461B7801AC002B00D0229C61
:104850006846FFF7E8FE0500A54205D02068083449
:1048600003681B699847F7E76846FFF7F2FE27B031
:1048700030BDF0B5A7B00D00010068461600FFF787
:1048800049FF6B461B7801AC002B00D0229C684688
:10489000FFF7C9FE0700A74207D02068320003686F
:1048A00029005B6998470834F5E76846FFF7D1FEB1
:1048B00027B0F0BDF7B50E001500002403270190C6
:1048C000B44209DA38006043019B0322290018181A
:1048D00006F020FB0134F3E7F7BDF0B585B0019396
:1048E000FF230E000025032703ACA3700F3B0090AD
:1048F00022706370B5420CDA39006943009B2000D6
:10490000591800F008F82378019A0135D31823705C
:10491000F0E705B0F0BDF0B507784478FE00F3B2DB
:104920009C465623624685785343202040223840D7
:104930003A407FB21B0A002F55DB002A41D10028E4
:1049400004D1DE43F6B21A00330004E05533DBB283
:1049500010001A00AB23FF2C19D0002C67D0E443C1
:10496000E4B2644324120134E4B2E643F6B2013601
:1049700073431B12DFB272431212D2B24643361295
:10498000F0B23F1912190019FBB2D2B2C0B2160030
:10499000FF2D12D02C006C436E1EB54124122D1930
:1049A000EEB2002E47D0741C63431B12DBB262438D
:1049B0001212D6B260430012C0B24E700B708870F3
:1049C000F0BD00280AD16246AB2656435522361266
:1049D0005242961B563BF6B2DAB2B5E70026DA43EE
:1049E0001800D2B2B0E7002A0FD100280AD1AB26B6
:1049F00063465E43553A360A921B55360300D2B2DF
:104A0000F0B2A8E7D843C0B2A5E71E00002807D13E
:104A10005536F6B255225242D31A0200D8B293E765
:104A2000563E0022F6B25520C01AC0B28CE7FF20D5
:104A300002000300ABE730003300BEE710B50348C7
:104A400000F0FCFAFFF7E0FB10BDC0464C0F002061
:104A500013B50D4C0D49200000F028F80C490D4805
:104A600000F024F80C490D4800F020F80C490D48DE
:104A700000F01CF8002301222100009201939218FB
:104A8000094800F071FA13BD4812002000080042E6
:104A9000000C00424C120020001000425012002076
:104AA00000140042541200204C0F00200160704797
:104AB0009446F0B505AC25789C1E621E9441624672
:104AC00006689207376824063A4322430724326077
:104AD00000682140AD01002442682943022B00D028
:104AE0005C030A4322434260F0BD30B5C025036831
:104AF000AD031C6812052A402243C0240904A40205
:104B000021400A431A6003685A6814435C6030BD50
:104B10000123026811680B43136003681A68D20707
:104B2000FCD4DA69D207F9D470470223026811680D
:104B30000B4313600268D3699B07FCD4704703687A
:104B40001A7ED20702D41A7E9207FCD57047002243
:104B500003685A8370470368187E4007C00F704788
:104B60000368187EC0097047802302685B42117E8B
:104B70000B43137670470368588B8007C00F70474C
:104B800002230268518B0B43538370470368187EDE
:104B9000C007C00F70470368188DC0B27047036824
:104BA0001A7ED207FCD589B20120198570470122EF
:104BB00003689A757047012203681A75704780234D
:104BC0000268DB02116851680B43536070470000B4
:104BD000036803491A685A680A405A607047C04619
:104BE000FFFFFBFF032230B5036811401C68074D2F
:104BF0005A6809042A40E4061143640F5960052CE1
:104C000003D10268D3695B07FCD430BDFFFFFCFF12
:104C10000368283319700268137E5B07D80F002BD6
:104C200004DA0123508B4007C00F584070470368D7
:104C30001868C006400F043843425841C0B270475C
:104C40000368187E4007C00F70470368187EC007CE
:104C5000C00F70470368588BC006C00F70470368C9
:104C6000187E8007C00F70470368588B0007C00F7D
:104C7000704703681A68D206520F052A02D11A7EBD
:104C80009207FCD528331878C0B2704703680B4AE6
:104C900093420DD00A4A93420CD00A4A93420BD059
:104CA0000120094A4042934201D1043040B270478A
:104CB0000020FBE70120F9E70220F7E700080042A7
:104CC000000C00420010004200140042F8B5FFF74B
:104CD000DDFF00282CDB1D4BC000181805230479CC
:104CE000C3560320FF221840C0008240C021D24397
:104CF0008140002B1DDB1F2501201D40C026A84040
:104D0000134D7600A851C0269B089B005B19B60086
:104D10009F593A401143995128603F2323408024F2
:104D2000E4011C430B4B5C805A7852B2002AFBDB37
:104D3000F8BD0F200340083B07489B089B001B1849
:104D4000D86902401143D961E7E7C046C4B5000005
:104D500000E100E0000C004000ED00E0F8B50400C8
:104D60000F0016001D00FFF7B1FF2000FFF7D0FE77
:104D70001C21BB000B4071072268090C0B43136018
:104D8000842322689375012F1AD11021012E00D09F
:104D900008390C4B69431868C00003F027FA072252
:104DA000216802408B895203DB04DB0C13438B81A7
:104DB000226803049089DB0C400B40031843908168
:104DC000F8BDC046900000200120704710B5036870
:104DD000014A1B6A984710BD130400000300FC330E
:104DE000D96F9A6F914203D0DB6FC018007D704776
:104DF00001204042FBE710B504000069FFF788FE80
:104E000022000023FC329367D3679E229200A418ED
:104E10006366A36610BDF0231B01194080230620A2
:104E20009B0099420AD00133FF330130994205D0EB
:104E3000802300205B00994200D1053070470F208D
:104E400001400020012903D00239481E8141481C3D
:104E500070470000B923F0B5182785B002919B0078
:104E60000400C05C3B0008214343324E1500F31898
:104E7000595600F049FD304B0821E05C3B004343AC
:104E8000F318595600F040FD2C4BE25C0393022AC4
:104E900009D11133E05CFF2805D008214743F719F9
:104EA000795600F031FDBA27BF00E05DFF2819D028
:104EB000012100F0B5FC1822E35D21495A43B356A5
:104EC000B618DB015818BB21890060501D4901222A
:104ED0005B18BC218900635071688A40BD2189003C
:104EE00062501A600122029B11002069FFF736FF11
:104EF00029002000FFF78FFF290006002000FFF7A0
:104F00009EFFF0221540303D6A42554103003100BA
:104F1000206901220095FFF7CBFD0B4B2069E25C75
:104F2000039BE15CFFF7E1FD2069FFF7FEFD05B0A3
:104F3000F0BDC046CCB30000E5020000E70200006F
:104F40001844004114440041E6020000AF2210B5AD
:104F500004000021520005F0E6FF23000022FC338C
:104F600020005A669A6610BDF7B51D0008AB1B7885
:104F70000400009309AB1B781600019300234360E3
:104F8000FA239B008360104B0F000833036014303A
:104F9000FFF7DCFF20007D30FF30FFF7D7FFB9239C
:104FA0009B002761E654094B009AE554084B20000A
:104FB000E254019A074BE254BA22E93BFF3B9200CC
:104FC000A3541032A354FEBDE4B50000E502000076
:104FD000E6020000E70200000300FC33586E9B6EFF
:104FE000C01A01D55F30FF30704710B504002000B3
:104FF0007D30FF30FFF7F0FF0028F8D12069FFF780
:105000009EFD10BD10B51430FFF7E6FF10BD030084
:10501000FC33596E9A6E914205DB5A6E986E801A77
:105020005E30FF307047986E5B6EC01A0138F9E74A
:1050300010B57D30FF30FFF7EAFF10BD70B50400FA
:105040000069FFF798FD002805D02069FFF7A3FD50
:105050002069FFF795FD2069FFF77DFD002824D02A
:1050600025002069FFF797FDAF21FC350600A86FEA
:105070004900013003F040F9EB6F994203D0AB6F68
:10508000E3181E75A967BA239B00E35CFF2B0CD0C5
:1050900020001430FFF7BBFF092806DCBB23BD222C
:1050A0009B009200E358A2581A602069FFF76EFD3A
:1050B00000281DD020007D30FF30FFF78DFF002835
:1050C00025D09E239B00E618B26E736E9A421BD0C9
:1050D000BE22AF21B36EB06EE3185200013049001A
:1050E0009D5C03F009F9B1662069E9B2FFF757FD4D
:1050F0002069FFF735FD002805D02069FFF734FD52
:105100002069FFF724FD70BD01256D42ECE72069A1
:10511000FFF751FDECE70000F7B5040000690E0051
:10512000FFF734FD002847D1AF277F009E239B0067
:10513000E518686EAB6E39000130019303F0DCF8BE
:10514000019B994224D1EFF31083DB070ED4204B4F
:105150005B68DB05DA0D002BE8D0103A53B212067B
:105160000DD49B081B4AC0339B009B582069FFF756
:105170000DFD0028DAD02000FFF760FFD6E70F22F0
:105180001340083B144A9B089B009B181B68EDE7E3
:10519000AF21686E4900013003F0AEF8AB6E994262
:1051A00005D0BE226B6E5200E3189E5469662069DA
:1051B000FFF7FDFC0120FEBD20007D30FF30FFF732
:1051C0000BFF0028B0D131002069FFF7E8FCF1E7C0
:1051D00000ED00E000E100E01CED00E070B505002E
:1051E000FC35EA6FAB6F04009A421DD0AF21EB6F24
:1051F0004900C318E86F1E7D013003F07DF8E967B0
:10520000BA239B00E35CFF2B0CD020001430FFF787
:10521000FEFE0A2806DDBC23BD229B009200E35857
:10522000A2581A60300070BD01267642E8E710B53A
:10523000041E05D005F028FF210003F047F90C00FB
:10524000200010BD10B50400884203DA081AFFF7E9
:10525000EEFF2418200010BDFEE7FEE7034B10B55B
:105260001B68002B00D0984710BDC0465812002084
:105270000F4A1048110010B50F4B824202D09342E2
:1052800009D11300824209D100F0B6F800F082F88B
:10529000FEE710CB10C18142FBD3F3E7074A8B42F4
:1052A000F2D00021064B9A42EED202C2FBE7C04682
:1052B00000000020A401002014BA0000A801002072
:1052C0006018002010B500F062F8002801D100F04D
:1052D00053F810BD014B18607047C04658120020AB
:1052E000014B18687047C0465C120020F7B51348A0
:1052F000012284461249134C8E68636805689B0E30
:105300001340019288686268019F920E3A40674696
:105310003F6893420ED1BD420CD186420AD35B193D
:10532000FA254868AD00861B07486B437043000DA3
:10533000C018FEBD3D0013000600E3E75C1200202C
:1053400010E000E000ED00E05555000070B5041ECF
:1053500011D0FFF7CBFFFA260500B60000F016F8D3
:10536000FFF7C4FF401BB042F8D3FA23013C9B0077
:10537000ED18002CF4D170BD10B5034A1368013349
:10538000136000F03FFB10BD5C120020704700204E
:105390007047704710B500F0F9F805F081FDFFF790
:1053A000F8FF0120FFF7D2FF094C200000F088FD34
:1053B000200000F0FDFDFCF72DFFFDF7DBFDFFF702
:1053C000E5FF044B002BF8D000E000BFF5E7C04636
:1053D000601200200000000010B505F087FD10BD30
:1053E00010B505F083FD10BD10B505F089FD10BDA9
:1053F00010B505F085FD10BD1E22F0B5504851498D
:105400004368514D93431A0002231343436008231A
:105410008A691343FE228B612B68D2039B021340DF
:105420004A4A13434A4A936113000422DC68144237
:10543000FCD00124474A14701678264203D05678CF
:1054400076B2002EF8DB01249460547864B2002C0C
:10545000FBDB414C5460547864B2002CFBDB8224AB
:10546000E4015480547864B2002CFBDB02249C8459
:105470000E34DE682642FCD0384CDC621024DE6834
:105480002642FCD02C68A40E3F2C00D1203C9E6A02
:10549000334FA4023E4034439C629C6A314EA40ABE
:1054A000A40234439C62304CDC6200249C8410349F
:1054B000DE682642FCD02D4C9C841024DE682642F7
:1054C000FCD002249E8C34439C841024DE68264247
:1054D000FCD000249460547864B2002CFBDB244C94
:1054E0005460547864B2002CFBDB1C6A214E3440BB
:1054F00080261C621C6AB4431C62032393601E4B0B
:10550000536053785BB2002BFBDB0023FF240B724C
:105510001A4A4B728B72CB72194B1A60194A2B685C
:1055200011689A065B01C90E2340520F12020B4309
:105530001343154A13858023426813434360F0BD2B
:105540000040004100040040246080000606000086
:1055500000080040000C004001040100B905FF7D77
:10556000FF03FFFFFF01000080BB0A1C24050000B1
:1055700000070300FFFCFFFF03060100006CDC02D4
:10558000900000202060800000400042FA212E4B55
:1055900010B51868890002F029FE802301385B04E9
:1055A00098424FD229492A4A4860C020136A00060F
:1055B0001B021B0A0343136200238B6007330B603B
:1055C0008021136A09061B021B0A0B431362FC228B
:1055D000204B196A0A431A62FF22196A12020A430F
:1055E0001A62A022196AD2020A431A621A4B1C00DC
:1055F0005A7852B2002AFBDB184A5A80184B1A001C
:10560000597EC9090129FBD0C8218900998005214B
:10561000D970537EDB09012BFBD0C02300205B0136
:105620001361907000F048F863785BB2002BFBDBED
:105630000C4B0D4A6380D379DB09012BFBD041234E
:10564000537010BDFEE7C0469000002010E000E05F
:1056500000ED00E000040040000C00401E4000008F
:105660000040004221400000004800420F4B302221
:1056700018600F490F4B0A2809DD988890439880DD
:10568000243A0A605A7ED209012AFBD070470828C2
:1056900006DD98889043202202439A800A22F0E790
:1056A000988802439A800822EBE7C04698000020C1
:1056B00094000020004000421F4900B50B004A7EC4
:1056C000D209012AFBD001380A282FD802F07AFD2E
:1056D0001B2E2E2E2E2E062E2E2411001A6917494F
:1056E0000A400F211A615A788A43110001220A43A5
:1056F00010E01A6911490A400F211A615A788A4349
:1057000011000322F3E71A690C490A400F211A61BC
:105710005A788A435A7000BD1A6908490A400F2115
:105720001A615A788A4311000222E0E7F0221969CF
:1057300012050A43F3E7C04600400042FFFFFFF0B6
:1057400010B50400052800D808340121200000F01D
:10575000DBF8082C0DD12D4B1900DA79D209012A7A
:10576000FBD002201A7882431A70CB79DB09012B17
:10577000FBD027490B004A7ED209012AFBD0182012
:105780006043244C0A692418207C1F242040A24333
:1057900002430A615A7ED209012AFBD002221978FB
:1057A0000A431A705A7ED209012AFBD00222197BC1
:1057B0000A431A731A7ED207FCD501221A765A7E42
:1057C000D209012AFBD00222197B0A431A731A7EDE
:1057D000D207FCD5588B80B25A7ED209012AFBD061
:1057E00002211A788A431A705A7ED209012AFBD004
:1057F000094B1A68094B1B689A4202D002D9D31A86
:10580000D84010BD9B1A9840FBE7C04600480042B4
:1058100000400042CCB3000094000020980000201B
:10582000182310B508245843134A13181C57013481
:1058300012D001245B6882569C4003290CD80800D2
:105840000E49D2015218D318403302F0BBFC0210AB
:10585000060B02211970546010BD062119705460A6
:105860009461F9E70621197054605461F4E742210C
:1058700019709460F0E7C046CCB3000000440041CA
:105880001823F0B508245843114A13181C57013443
:105890001BD0012635005F688356BD400D4ADB01F1
:1058A0009A18906805420BD10C00601E8441D219F1
:1058B0004032107834400336A400B04320431070C7
:1058C000044A9B18002901D15D61F0BD9D61FCE790
:1058D000CCB3000000440041182310B50824434312
:1058E00007490020CA181457013408D05B560549EF
:1058F000DB015B18186A5368D8400123184010BDBB
:10590000CCB3000000440041182370B5082643437F
:105910002A4AD518AE573400013607D0072907DCCC
:1059200000291DDA01314C424C416442200070BD17
:105930000B00083BDBB20024032BF7D8092903D165
:105940002100FFF76DFFF1E70A2904D10839FFF7BD
:1059500067FF0024EAE700240B29E7D10A39F0E7C2
:105960006C68012520009B56C9B262082840DB0103
:105970002C4211D012480E351B189A18303210786C
:10598000090128400143C9B2117041221B1940335B
:1059900019780A431A70DCE70F26094D5B199A182B
:1059A000303215781B19B543294311704122403319
:1059B000197804000A431A70B8E7C046CCB3000057
:1059C00000440041F8B505000E0017000024BC4259
:1059D00008D02B682800315D1B689847002801D04B
:1059E0000134F4E72000F8BD014B18607047C04651
:1059F0009C0000200122024B52421A607047C046B0
:105A00009C000020124A1368591C20D0013B1360EF
:105A1000002B1CD172B60F4B01221900187D1042C9
:105A2000FCD02022188BFF3202431A830A4ADA6123
:105A30000A4A1A8001230A7D1A42FCD0BFF34F8F15
:105A4000074B084ADA60BFF34F8FC046FDE7704747
:105A50009C000020004000410210000002A5FFFF52
:105A600000ED00E00400FA05704770B50F26CB1D6D
:105A700002003240D5B22C0000093034092A00DD82
:105A800007341C705A1E994200D170BD1300EFE715
:105A900010B50400806905F033FAA06A05F030FA09
:105AA000200010BD10B50400FFF7F2FF2000FFF743
:105AB0009BFC200010BD000070B5032908D1324BBB
:105AC0008000C058002802D00368DB68984770BD8A
:105AD00082291FD1C3B22D4D5A01AA1891692C4CAD
:105AE00080010C40C0218905214391612949083377
:105AF0004018802150612A685B01D018047949421E
:105B0000214301717020995C8143080030210143D9
:105B10009954DCE70029DAD1C024C1B21B4E4A01F6
:105B2000B21893681A4DA4052B40234393601A4B77
:105B30008001C0180B0050603068072608335B01F5
:105B4000195CB1430E0001213143195491690D4094
:105B50002C43946170240F495161195CA1430C00DE
:105B600010212143195491680C4CC3180C4080211A
:105B70004903214391609168890B89039160402218
:105B800059790A435A71A2E76412002018170020BD
:105B9000FFFFFF8F8C1200204C140020FF3F00F00D
:105BA000EFF3108303600123436072B6704703680C
:105BB000002B02D162B6BFF36F8F704737B505690E
:105BC00004006846002D14D1FFF7EAFF019B621D17
:105BD000013B02D3D57FEDB2FAE768460193FFF7A8
:105BE000E6FF002D01D100203EBD206AE369C01A06
:105BF000FAE7FFF7D5FF22000025019B3432013B75
:105C000002D31578EDB2FAE768460193FFF7CFFFAC
:105C1000002DE8D0206BE36AE9E70000F0B5FF252E
:105C200001264268836811682B405B01CC18641917
:105C3000A77AD3183E43A672C6689C680B4FB60479
:105C400036093C4034439C6083682B405B01D2188A
:105C50009468A40BA4039460402283682B4008330B
:105C60005B01CB1819790A431A71F0BDFF3F00F0B0
:105C7000F7B5056904000E0017006846002D43D1F2
:105C8000FFF78EFF019B601D013B5A1C0BD0C27FAA
:105C9000591E002A05D168460193FFF788FF2800A6
:105CA000FEBD0B00F1E768460193FFF780FFE36953
:105CB000AF420AD0226A9A4207D95A1CE261A2690D
:105CC000D3181B7873550135F1E7226A9A42E6D161
:105CD0000023E361013368462361FFF761FF22007F
:105CE0000021019B671D013B3532581CD3D0F97749
:105CF00010785E1E002805D0200011700193FFF778
:105D00008DFFECE73300F0E7FFF74AFF2000019B2F
:105D10003430013B5A1C06D00278591ED5B2002AF5
:105D2000B9D00B00F6E7684601930025FFF73FFF67
:105D3000E36ABD4202D0226B9A421CD8226B9A427F
:105D4000ADD100236846E3622361FFF729FF2700F6
:105D500022000021019B3437013B3532581C9AD078
:105D6000397010785E1E00280DD02000117001934C
:105D7000FFF754FFEBE75A1CE262A26AD3181B78C4
:105D800073550135D4E73300E8E7F7B58268436817
:105D9000D2B2110004000831186849014118C879CD
:105DA000C00729D501255201CD719B189A686169F8
:105DB0009204920C002923D12262226A002A41D047
:105DC000A26A656168465A60FFF7EAFE342294468B
:105DD0002200019B671D013BA4443532591C2DD084
:105DE0006146FD770978581ECEB2002905D001938F
:105DF00068461570FFF7DBFEF7BD03001670EDE790
:105E00002263226B002A1DD0002227006261A26952
:105E100068465A60FFF7C4FE019B621D9446013B31
:105E200034373032591C09D061463D70C97F581E45
:105E3000CEB20029DBD103001670F3E76846019368
:105E4000FFF7B5FE2000FFF7E9FED5E713B56A4678
:105E500000230C00D01DD37100F0EAFD2368181850
:105E6000206000F079FE6B46D91D00F041FE2368EA
:105E700018186B462060D87916BD000003290ED192
:105E800080220E4B62311B68FF31585C5242024344
:105E90005A5468226339FF32FF39995470470129F7
:105EA000FCD18022054B24311B68FF31585C5242E3
:105EB00002435A5428222339FF32EDE718170020F5
:105EC00070B500252F4B012104000F201D70FFF736
:105ED000A7FC01210F20FFF7D3FC2B4B01210E2043
:105EE0001D70FFF79DFC01210E20FFF7C9FC202348
:105EF000264A0F20D1690B43D361012224490B7834
:105F000013430B70234B19788143197006211D78B8
:105F10002943197020490D782A430A701A780240E3
:105F20001A70602219780A431A701C4B1C4A5A8056
:105F30005A78D209FCD11B48FFF7CCF91A4D28003A
:105F400000F01EFE280000F031FE7F212B68C120EA
:105F50001A7880000A401A70042219780A430C212A
:105F60001A701A898A4311491A810A581202120AB0
:105F70000A5080220A6019787E3A0A431A70012377
:105F8000237070BD811200208012002000040040A8
:105F9000584400413C44004159440041000C004039
:105FA00006400000756900001817002000E100E0BD
:105FB0000078002810D00121084B1B681A898A43F9
:105FC0001A810822198B0A431A830422198B0A4367
:105FD0001A830022024B1A607047C046181700202F
:105FE000101700200A000E498B699B0B9B038B61E5
:105FF0000B680221FF331972987982390143997134
:10600000197A8907FCD57F20064B0240997A814393
:10601000114380229972997A52420A439A727047C8
:10602000181700200050004110B50B790C00002B10
:106030000CD1080000F00AFD002801D0012010BD9D
:10604000094A93699B0B9B039361F7E700F084FD7A
:10605000210000F071FD0028F0D1034A93699B0BE9
:106060009B039361EBE7C04618170020F7B50D00BE
:106070001100832A19D1EBB2324C5A01A21891694E
:106080003148AD010840C0218905014391612F4984
:1060900020686D187021083355615B011A5C8A43D2
:1060A000110040220A431A54F7BD022A45D1284A5A
:1060B000AB009858002802D003685B6998473820E5
:1060C000FFF78AF9234B8027036000231D4E7F00D2
:1060D000421D036203614361C36146608560C7601E
:1060E000D3772F32C36203630400137038005370F8
:1060F00004F0FCFE0190A061380004F0F7FEEBB262
:106100005A01A062B21891680F4808330840C021B4
:10611000890501439160316807265B01585CAD0039
:10612000B0430600032030435854019B20005360C5
:10613000FFF774FD064B5C51B6E72800FFF7BCFC87
:10614000B2E7C04618170020FFFFFF8F8C12002017
:106150006412002024B6000070B505000124064B2F
:10616000A200D258002A05D021002800FFF77EFFA8
:106170000134F4E770BDC046A0000020084B8A003F
:10618000D05810B5002803D003689B68984710BD0D
:10619000044BC9B24901591888688004800CF6E79D
:1061A000641200201817002010B50C00FFF7E6FF5E
:1061B00000280CD0064BE4B219688023083464012F
:1061C0000C1962795B42134363710223E37110BDC2
:1061D0001817002070B5CBB2124A13485C01890130
:1061E0008918021951609168104D08330D408021C3
:1061F00089022943402591609168890B8903916048
:1062000001685A018A1816793543157195796D061A
:10621000FCD55B01C918CB79DB07FCD50019806878
:10622000C0B270BD4C14002018170020FF3F00F0D2
:1062300070B5140040220B4B0D001B68FF335979D9
:106240000A435A710021FFF7C5FFA04200D9200080
:1062500000230549A34203D0CA5CEA540133F9E79D
:1062600070BDC046181700204C14002010B50C4813
:10627000C9B24901421893689B049B0C3F2B0BD970
:106280009468403B9B04A40B9B0CA40323439360A2
:1062900041188868C0B210BD93689B0B9B03F6E75A
:1062A00018170020F0B51C002F4B85B01B680600A6
:1062B0000D000192002B54D02C4F3B78D9B2002B0B
:1062C00002D10E20FFF7DCFA64233B70284BAA00B2
:1062D000D058002808D0036822005B6801999847CD
:1062E0000400200005B0F0BD29003000FFF746FF94
:1062F000844204D929003000FFF740FF0400290040
:106300003000FFF7B3FF0121EBB21A4F03935B019B
:106310000293029A3B6801989B18FF335A7A0A430A
:106320005A72154BA9012200C91804F0F3FD002C84
:10633000D7D029003000FFF721FF0028D1D140211C
:10634000039B3A6808335B01D3181879014319712C
:106350000121D971029BD318FF339A7A0A439A72AA
:10636000BFE701246442BCE7101700208012002020
:1063700064120020181700204C14002013B56B463F
:10638000DC1D22000123FFF78DFF012801D12078B9
:1063900016BD01204042FBE7F0B51C003A4B85B02A
:1063A0001B680E000192002B3FD08023DB019C4232
:1063B0003BD8364D2B78D9B2002B02D10F20FFF7F6
:1063C0005FFA642300272B70314BB201D31802937C
:1063D000002C2CD02F4B1B680393FF2333401D0050
:1063E00000930835039B6D015D19AB79DB0921D062
:1063F000294B2A49186801F0F9FE294B1721584307
:1064000001F0F4FE274BEA79920713D49A5D002A33
:1064100001D10138F7D201229A55009B5A011D4B38
:106420009B189A69920B92039A6101277F42380068
:1064300005B0F0BD00221B4B25009A55402C00D919
:1064400040252A000199029804F064FD009BA904EC
:106450005A01104B890C9B18029A7F195A619A694C
:10646000641B920B92030A439A61009B039A0833C0
:106470005B01D3180222DA715979823A0A435A71C0
:10648000019B5B190193A3E71017002081120020E4
:106490008C120020181700209000002040420F00AE
:1064A000701101008312002070B50C001D000D4B0F
:1064B000A601F618110030002A0004F02BFDE4B20A
:1064C000094A640114196661A369084928000B4050
:1064D000A361A169AB04890B9B0C89031943A161DA
:1064E00070BDC0468C12002018170020FF3F00F03E
:1064F000F7B5104B0F001B7814000190002B0CD146
:106500000D4B16001D78002D09D00C4E0C48358817
:1065100028182D1904F0FEFC35802000FEBD002E49
:10652000FBD033007A1900210198FFF7BDFF2D1829
:10653000361AF4E70C1600200D1700200E17002065
:106540000D160020F8B50F0016000024012A26D9E8
:10655000100004F0CBFC0500380004F0D9FD032343
:1065600002220130400028706B7096420DD93978B4
:1065700000290AD0531CDBB20137A9549E4203D034
:106580000232EC54D2B2F0E7320029000548FFF79E
:10659000AFFF441EA041C4B2280004F0B1FC2000AB
:1065A000F8BDC04660120020F0B50025012785B077
:1065B000184B0E0069461F7004000095FFF746FC5B
:1065C000154B01A90B806A3BFF3BCB716E3B0B72F5
:1065D000009B320009334B800E4B8D714F71087157
:1065E0001D70092E0FD00D4E092237700C4F200060
:1065F00000953D80FFF77CFF69462000FFF726FCF1
:106600003A88084935702000FFF772FF012005B075
:10661000F0BDC0460C160020090200000D17002036
:106620000E1700200D160020F0B5CF7805000E00E3
:1066300093B0022F09D1C9882B48FFF7B5FF441E3C
:10664000A041C4B2200013B0F0BD00F085FA3100C3
:1066500000F062FA002803D0C417241AE40FF1E70F
:10666000012F0BD1F2882149112A11D8D2B2002A68
:106670000ED02800FFF73CFF0124E3E70400032FBE
:10668000E0D1B378002B05D1F2881949032AEDD95E
:106690000A78EEE7022B06D1F28816492800FFF7A8
:1066A00051FF0400CEE7012B02D1F2881249F5E731
:1066B000032BC7D1114B01A91868FFF7D6F9104B6E
:1066C00003A91868FFF7D1F90E4B05A91868FFF761
:1066D000CCF90D4B07A91868FFF7C7F96B460533CE
:1066E000DC77F28801A9D9E76012002053B60000D8
:1066F00046B600003CB600004AB600000CA0800080
:1067000040A0800044A0800048A0800037B505006C
:1067100048780C000B2810D801F054FD061B0F31EF
:106720000F484D7551546E71097801AA002906D1A0
:10673000022311802800FFF7B7FE01203EBD002391
:106740001380324B1B78012B00D1137002230021E0
:10675000F0E78A780023012A09D16A4693802C4BFE
:106760001B78012B00D11371022301AAEFE7274AFE
:106770001370284A93699B0B9B039361DDE78C7828
:10678000012C07D1224B01AA1C70234B1B781370DC
:106790002300DCE700208442D0D11C4B01301D4A8D
:1067A000187093699B0B9B039361C7E72800897856
:1067B000FFF718FCC1E72800FFF736FFBEE701230B
:1067C000164AC4E70B780020DB06B7D12800FFF794
:1067D000C3FC2A200221A278104BFF301A600D4A18
:1067E00013681C5C21434A241954FF34195D29386D
:1067F000FF3801431955D4E70123094AA7E78A78EE
:10680000074B1A60B5E7002098E7C04682120020C7
:106810008A1200201817002018B600001017002058
:10682000141700204B4BF7B51C780700002C00D044
:1068300083E0494E33689B8B1B070ED52100200057
:10684000FFF73AF9326810231100FF31887A0343C9
:106850008B72424B1C600823938333689A8B5207D8
:106860001FD504229A833E4A1378002B0AD013784E
:10687000013BDBB213701378002B03D101210F20F1
:10688000FEF7FEFF374A1378002B0AD01378013B3E
:10689000DBB213701378002B03D101210E20FEF719
:1068A000EFFF3368FF331A7AD2061ED510221A7210
:1068B000597930320A435A7160232B4938000A78DB
:1068C0001A423BD1FFF722FF3368FF33002838D04C
:1068D0008022997952420A439A711A7A520604D553
:1068E00040221A72597A0A435A72336800241D8C66
:1068F00001239D43EDB20193E1B2002D1DD02B0089
:106900002341019A134215D02300326808335B01FA
:10691000D318DA79D20702D4DB799B0707D5134B5A
:10692000A200D058002810D003681B689847019B2C
:10693000A3409D430134092CDED1F7BDFFF774FB62
:10694000C2E720210A4A9171C7E73800FFF796FA9B
:10695000EDE7C0460D170020181700201017002083
:1069600081120020801200204C14002064120020AC
:10697000FF50004110B50248FFF754FF10BDC0465C
:1069800060120020014B024A1A607047181700205D
:10699000005000413F20704713B56B460268D97123
:1069A0000733546819000122A04716BD10B5022113
:1069B0000069FFF7E3FB10BD10B503210069FFF785
:1069C000F3FB10BD10B51300084A0400D279002A69
:1069D00003D101230020636010BD0A000069032178
:1069E000FFF7DAFC0028F4D0F6E7C046CC00002020
:1069F00010B5054C03002068421C04D11A68180029
:106A000052699047206010BD18010020074A03001A
:106A1000106810B5411C03D001235B42136010BD08
:106A200002211869FFF7AAFCF9E7C0461801002007
:106A300010B5037842220233037002490248FFF77F
:106A400057FD10BDD40000206012002010B5017861
:106A5000030042780020A12908D1212A05D1174935
:106A600017481A3AFFF744FD012010BD2129FCD137
:106A7000202A13D111491248193AFFF7D9FB96225F
:106A80000E4BD200196891420ED1DA7901231A42D5
:106A90000AD1FA20FEF7A8FF0020E6E7222A06D155
:106AA0009A78064BDA71EAE7FEF7A4FFF4E7232AA7
:106AB000DBD15A88034B1A60D7E7C046CC000020D0
:106AC00060120020C8000020FA220021054B92002D
:106AD0009A60054A08321A60044A59601A611976A8
:106AE0007047C0461C18002068B6000060120020E5
:106AF00070B50E0000254468002C0BD023683100CF
:106B000020005B689847002802DBE4682D18F3E753
:106B100001256D42280070BD70B50D004468002C41
:106B200008D02368290020009B689847002802D1DC
:106B3000E468F4E7200070BD70B50D004468002CD7
:106B400008D02368290020001B689847002802D13C
:106B5000E468F4E7200070BD064A0123116810B50F
:106B60000C0005481C40194203D1044944600180CF
:106B7000136010BD381800203C18002002040000EB
:106B800070B50400012320CC00212A782000134393
:106B900080222B70520004F0C6F9AB78DB07FCD4DE
:106BA000AB789B07F9D46C6270BD00001F22144BB8
:106BB00070B51B68590B9C0C9B0111405B0F224068
:106BC0001F2900D11A391F2A00D1023A072B00D100
:106BD000043B1F2500688E01048D0A492A4021408C
:106BE00031430185018D14000A00AA432243028526
:106BF000028D1903044B13400B43038570BDC0463F
:106C0000246080003FF8FFFFFF8FFFFF030010B5F7
:106C10000800190004F030F910BD0000D0B5254A75
:106C20004B0086B05B08934222DD234A934209DD84
:106C300002000B0003F0F6FB02000B00100019002D
:106C400006B0D0BD02AA00F031F903231840049A1F
:106C5000059B012813D0022822D0002819D00298C1
:106C600003990124009401F073F902000B00E5E799
:106C70000022002300F0F2FB02000B00DEE7009090
:106C80000298039901F064F980231B060200CB18D7
:106C9000D4E70298039900F0E1FB02000B00CDE776
:106CA0000298039900F0DAFB80231B060200CB1840
:106CB000C4E7C046FB21E93FFFFFEF7F434AF8B539
:106CC000474690464B005B0D9844CE46424680B501
:106CD00005000C000E000700132A25DC002A4CDBFF
:106CE0003B4B134199460B40034317D0394A3A4B6B
:106CF0002800210002F0BAF90022002301F016FC5E
:106D0000002809D0002C04DA8026434676031E4171
:106D100036194B4600279E433D00340028002100D1
:106D20000CBC90469946F8BD332A0CDD8023DB006D
:106D30009845F3D102000B002800210002F096F9DB
:106D400005000C00EAE7254A9446012263445242BA
:106D5000DA4091460242E1D01E4A1F4B2800210032
:106D600002F084F90022002301F0E0FB0028D3D0D8
:106D7000002C1ADB4B469F43CEE7164A164B2800E1
:106D8000210002F073F90022002301F0CFFB00285C
:106D9000C2D0002C02DB00270026BDE76400640897
:106DA00000272543B8D00E4EB6E74346142B09D032
:106DB0003422D21A012393405D19BD4204D22F0020
:106DC000661CD7E7661CD5E72F00D3E701FCFFFF61
:106DD000FFFF0F009C7500883CE4377EEDFBFFFF52
:106DE0000000F0BFF0B5CE46474680B58DB0040038
:106DF0000D0000F05BFA2B4B06001B780F005BB216
:106E00009946013310D022002B002000290003F006
:106E10009BFE8046002807D1002200232000290085
:106E200001F070FB002806D1300039000DB00CBC19
:106E300090469946F0BD012302931B4B069407959B
:106E4000039343460A934B4604940595002B15D0B3
:106E5000002300221900100002F072FC4B4608903B
:106E60000991022B0ED104F015F8212303600A9B2F
:106E70000193002B0FD1089E099FD5E70023002422
:106E80000893099402A801F01FF90028EBD00A9B8F
:106E90000193002BEFD003F0FDFF0A9B01930360E9
:106EA000E9E7C0461C0100208CB60000F0B54E4654
:106EB0005746DE464546E0B5DB4B4E001700894697
:106EC0008FB076089E4200DC84E0D84B9E4228DCDE
:106ED000D74A002900DC89E1D64B03F0A3FAD54B51
:106EE00004000D009E4200D18AE0D34AD34B03F048
:106EF00099FA02000B0020003A607B60290003F041
:106F000091FACE4BCC4A03F08DFA01239846B86033
:106F1000F96040460FB03CBC90469946A246AB464D
:106F2000F0BDC74B9E4200DC86E0C64B9E425CDC57
:106F3000C54932158846904443461B05F51A290079
:106F4000040003F01FFE03F053FE02000B002000BC
:106F500029000892099303F065FA0022BB4B02F066
:106F6000F5FF0D00040003F00DFE060003F040FEE7
:106F700002000B00200029000A920B9303F052FA42
:106F80000022B24B02F0E2FF002200230C900D9190
:106F900001F0B2FA002800D1FCE033005E1EB341DC
:106FA0000133AB4A39000192022208A800924246FE
:106FB00000F06CFB4B468046002BAADA80221206BA
:106FC00094467B6863447B60FB686344FB60434298
:106FD00098469EE702000B003A607B600023002287
:106FE000BA60FB600023984693E70B00020003F0B1
:106FF00019FA0023B860F96098463860796088E72C
:10700000D3228E4B520503F00DFA924A924B0400A4
:107010000D0003F007FA02000B0020003A607B60CD
:10702000290003F0FFF98C4B8A4A03F0FBF9012396
:10703000B860F96098466CE701F042F8874A884BDF
:1070400004000D0002F082FF0022864B02F00EF8D1
:1070500003F098FD804603F0CBFD754A754B049014
:10706000059102F073FF02000B002000290003F0DD
:10707000D9F9724B02900391049805996E4A02F077
:1070800065FF434604000D001F2B36DC764A013BAA
:107090009B009B58B34230D00298039922002B00EA
:1070A00003F0C0F982468B4652465B463A607B60ED
:1070B0000298039952465B4603F0B4F922002B0074
:1070C00003F0B0F9030008001A0019000300BA60C9
:1070D000FB604B46002B00DB1BE7802380241B0654
:1070E0009C464346554624065C4460445B429846B1
:1070F0003D607C60B960F8600BE72B000298039953
:10710000220003F08FF94B0036155B0D82468B464B
:10711000F31A102BC8DD04980599D322474B52056A
:1071200002F014FF04000D0002000B000298039906
:1071300003F078F902000B00029803990692079376
:1071400003F070F922002B0003F06CF904000D002D
:10715000049805993F4A404B02F0F8FE22002B00AC
:1071600003F060F90B00020004000D000698079977
:1071700003F058F94B005B0D82468B46F61A312E10
:107180000ADC02000B003A607B60069A079B0292C1
:1071900003938DE7032304E7B822049805992E4B47
:1071A000920502F0D3FE04000D0002000B000698C9
:1071B000079903F037F902000B000698079902922D
:1071C000039303F02FF922002B0003F02BF90400A6
:1071D0000D0004980599254A254B02F0B7FE2200C0
:1071E0002B0003F01FF904000D0055E7114B01F0CF
:1071F0003DFF104B04000D009E423BD00E4A0F4B4A
:1072000001F034FF02000B0020003A607B6029008F
:1072100003F008F9084A094B01F028FF01235B42FB
:107220009846B860F96074E6FB21E93F7BD90240DB
:1072300000004054FB21F93F3163621A61B4D03D34
:10724000FB213941FFFFEF7FEAFBFFFF00007041A8
:1072500014B700007370032E8A19A33B83C8C96D4D
:10726000305FE43F0000E03F94B60000C1492025B4
:107270009A837B39D3220A4B520501F0F7FE094A63
:10728000094B04000D0001F0F1FE02000B0020008C
:107290003A607B60290003F0C5F8024A024BBBE765
:1072A00061B4D03D7370032E8A19A33BF8B5684BC7
:1072B000CE4647460500020018000C0080B5084085
:1072C000984200D1A0E0002969DD081500D177E0DF
:1072D000604B0903C4188023090B5B030B43C107F0
:1072E00003D4D00F5B00C3185200611088465B00C6
:1072F000D10F5B180021802016248C465200800399
:107300000D189D4202DC29185B1B8444D50F5B00DD
:10731000013CEB1852004008002CF1D100208146BE
:1073200080202026000609E08B425ED0D50F5B004E
:10733000013E5B1952004008002E16D005198B4201
:10734000F2DD0F002C18002D4BDB5B1AAA4289419D
:1073500049425B1A521BD50F5B00013E8144390044
:107360005B1952004008002EE8D1134345D14B462B
:107370005E0863465910384B994663464944DB071B
:1073800002D580231B061E434346180543183500CB
:107390001C00280021000CBC90469946F8BD4B000B
:1073A0005B082B43F5D0002000293AD1D30A1900FD
:1073B00015385205002BF9D080246403234241D1B3
:1073C000802300245B034900250001341942FAD0D0
:1073D00020260B001100A240361BF140401B194330
:1073E00076E7E743FF0FCF19AFE795429ED82C18F9
:1073F000002DF6DB1F000023ACE74B4601331DD008
:107400004E4601367608B4E72A000B00280021001A
:1074100002F09CFD2A00230001F028FE05000C006C
:10742000B7E72A000B002800210002F0FBFF020052
:107430000B0002F085F905000C00AAE7012399462C
:10744000CC4496E70125110020266D42C5E7C046D1
:107450000000F07F01FCFFFF0000E03FF0B5474671
:10746000CE4680B587B000920193F9234F00814644
:1074700088467F089B059F4263DA03F083FB002860
:1074800000D1DAE04A4643464846414602F05EFDF6
:1074900004000D006A4A6B4B02F058FD6A4A6B4BC0
:1074A00001F0E4FD22002B0002F050FD684A694B18
:1074B00002F0B8FF22002B0002F048FD664A674B3D
:1074C00001F0D4FD22002B0002F040FD644A654B20
:1074D00002F0A8FF22002B0002F038FD624A634B45
:1074E00001F0C4FD22002B0002F030FD0290039158
:1074F0000022200029005E4B02F028FD029A039B27
:1075000006000F002000290002F020FD009A019BD8
:1075100004000D004846414602F018FD02000B0031
:107520002000290002F07EFF02000B00300039002D
:1075300002F078FF02000B0000204E4902F072FFBB
:1075400070E002000B0002F001FD04000D003C4A57
:107550003C4B02F0FBFC3C4A3C4B01F087FD220017
:107560002B0002F0F3FC3A4A3A4B02F05BFF220098
:107570002B0002F0EBFC384A384B01F077FD22007B
:107580002B0002F0E3FC364A364B02F04BFF2200A0
:107590002B0002F0DBFC344A344B01F067FD2B007A
:1075A000220002F0D3FC344B029003919F429FDDF6
:1075B000324B00229F423ADC314900207B182D4992
:1075C00016001F0002F02EFF0490059100222000FB
:1075D0002900274B02F0BAFC32003B0002F022FFE8
:1075E000029A039B06000F002000290002F0AEFC67
:1075F000009A019B04000D004846414602F0A6FC9B
:1076000002000B002000290002F00CFF02000B001A
:107610003000390002F006FF02000B0004980599C3
:1076200002F000FF07B00CBC90469946F0BD154B28
:10763000002604920593144FC8E700200D49F1E796
:10764000D43888BEE9FAA8BDC4B1B4BD9EEE213ECF
:10765000AD529C804F7E923E9015CB19A001FA3E10
:107660007751C1166CC1563F4C5555555555A53FE0
:107670000000E03F0000F03F3233D33F0000E93F1D
:107680000000E0FF0000E73F0000D23FF0B5DE461B
:1076900057464E464546E0B5DD4CA5440D911900D0
:1076A0001400A49A0A93DB4B9200D2580B00013BC2
:1076B0000493230006900892143300DAA1E3182102
:1076C000E01E00F01DFE030001339A009B1A059096
:1076D000DB00E318059A0793049BD41A089AD6187E
:1076E00014D40136A59F22AD361907E0A300F8583F
:1076F00003F07EFA013403C5B44207D0002CF5DA5A
:1077000000200021013403C5B442F7D1089B002BAF
:1077100001DA00F0FDFB0A9922AA8C469346089AEA
:1077200072AB62440392069A994690460093049B7A
:107730009A46DB009B4408339844049B00240025B0
:10774000002B13DB5F4600240025069E3A687B6809
:1077500003CE02F0FBFB02000B002000290001F029
:1077600085FC083F04000D004645EFD14B4630C371
:10777000994608239C46073BE3449C46039BE2440E
:107780009A45DAD10EA804228446524262449446B5
:1077900008998B009C4462468446083B63440B93E3
:1077A000059B0C92A59A98009446030063440593A8
:1077B0000A9B8846DA00069B083B9B469344DA46C0
:1077C00043460099DA0094460B0063441E685F68E4
:1077D00043460992002B32DD89468F4B4344DB0040
:1077E00099440EAB9B4600228C4B3000390002F0CE
:1077F000ADFB03F0C7F903F0FBF90022884B04004E
:107800000D0002F0A3FB02000B003000390002F073
:1078100009FE03F0B7F95B4601C39B464B462000C7
:107820001A685B68290001F021FC08225242944644
:107830004B46009A06000F00E1449A42D3D1079BC1
:1078400030001A0039009B4600F040FCFF23002264
:107850009B0504000D0002F079FBFFF72FFA0022D0
:10786000704B02F073FB02000B002000290002F0B5
:10787000D9FD04000D0003F085F9814603F0B8F945
:1078800002000B002000290002F0CCFD5C4606003F
:107890000F00002C00DC86E04346591E89000EAB29
:1078A0005B5818201A00001B0241914482409D1A27
:1078B0000EAB5D5017231B1B1D41002D00DD7FE02B
:1078C000002200233000390000F016FE002800D10D
:1078D000EAE04346591E089B8B420FDC0EAA9446F1
:1078E0000022514B0C9843449B0063441C68043BAA
:1078F00022438342FAD1002A00D024E1089B0EAA39
:10790000013B9B00D15801220B9B002900D015E1BF
:107910001968043B01320029FAD0012343449B46F5
:107920001300434403930A9B22AA43449046009ABF
:10793000DB0094469844099B634499465B46059A4C
:107940009B00D05803F054F9434618605960049BDB
:10795000002B25DB474600240025069E02E0083662
:10796000386879683268736802F0F0FA02000B0038
:107970002000290001F07AFB083F04000D00564565
:10798000EDD14B469C60DD6001239C460733E34408
:107990009C46039BE044E1449B45CFDD98460FE7BE
:1079A00000240025EDE7079B002B00D0BDE04346F7
:1079B000013B9B000EAAD558ED15002D00DC7FE79A
:1079C00001239C464346E144002B00DC2FE20E9C41
:1079D000002C00D09FE04346012B2FD001224146CE
:1079E0000FAB1C68002C00D198E08846531C802106
:1079F00049040C1B92000EA98C5098451DDD9B007C
:107A00008C46CA584146890008486344614410E0E6
:107A100094FDFFFF60B80000FFFFFF1F0000703EF5
:107A20000000704100002040FFFFFF3FFFFFFF000C
:107A30001A68821A04C38B42FAD10124079B002BD7
:107A40000EDD012B00D1D1E1022B09D143465A1E94
:107A500092000EAB9B580EA903939B029B0A8B507E
:107A6000022D00D02CE732003B000020934902F0A9
:107A7000D9FC06000F00002C00D121E7079A002056
:107A80008E4900F023FB02000B003000390002F0A9
:107A9000C9FC06000F00002200233000390000F06E
:107AA0002BFD002800D014E74B460693079B3000BF
:107AB0005A423900049500F009FB0022804B040073
:107AC0000D0000F03DFD002800D1EFE17D4B0022CC
:107AD0002000290002F03AFA03F054F8424606006A
